:020000040800F2
:1000000000800120BD380008ED380008EF380008F6
:10001000F1380008F3380008F53800080000000047
:10002000000000000000000000000000F738000899
:10003000F938000800000000FB380008FD3800080F
:10004000FF380008FF380008FF380008FF380008B4
:10005000FF380008FF380008FF380008FF380008A4
:10006000FF380008FF380008FF380008FF38000894
:10007000FF380008FF380008FF380008FF38000884
:10008000FF380008FF380008FF38000800000000B3
:10009000000000000000000000000000FF38000821
:1000A000FF380008FF380008FF380008FF38000854
:1000B000FF380008FF380008FF380008FF38000844
:1000C000FF380008FF380008FF380008FF38000834
:1000D000FF380008FF380008FF3800080000000063
:1000E000FF380008FF380008FF3800080000000053
:1000F000000000000000000000000000FF380008C1
:1001000000000000FF380008FF380008FF38000832
:1001100000000000000000000000000000000000DF
:10012000FF380008FF380008FF380008FF380008D3
:10013000FF38000800000000000000000000000080
:10014000000000000000000000000000FF38000870
:10015000FF380008FF380008FF380008FF380008A3
:10016000FF380008FF380008000000000000000011
:10017000000000000000000000000000000000007F
:1001800000000000FF380008FF38000810B5054CDB
:10019000237833B9044B13B10448AFF30080012333
:1001A000237010BD900200200000000068DC0008F1
:1001B00008B5064B1BB106480649AFF30080064858
:1001C000036813B1054B03B1984708BD0000000058
:1001D00068DC0008940200208C020020000000006F
:1001E000154B002B08BF134B9D46A3F5803A002109
:1001F0008B460F461348144A121A06F0AEFC0F4BFA
:10020000002B00D098470E4B002B00D098470020C1
:10021000002104000D000D48002802D00C48AFF367
:10022000008006F0F7FB2000290003F027FB05F013
:10023000EFFB00BF0000080000800120000000006C
:100240000000000090020020500C00200000000080
:100250000000000010B50E4807F0C0F940F2FF1191
:100260000C4803F0E9FA0C480C4906F0ABFA0446D6
:1002700010B90B4805F0A2FB21460A4806F012FB14
:10028000204606F0D7F8084807F0A8F9002010BD6E
:10029000A8C70008B5C70008BFC70008D4C7000832
:1002A000D6C70008F5C7000816C8000810B586B004
:1002B000162300930B4B01934FF0FF330A4C02932C
:1002C00000230393094B04932046072106220523AC
:1002D00000F058F80649074A204606B0BDE810402D
:1002E00006F01AB825C80008AC02002040420F00F2
:1002F000F90200089401002010B5074B0360044682
:1003000000F5257005F07CFA044BC4F85032204605
:1003100000F07EFE204610BD30CA0008F0D4000870
:1003200010B50446FFF7E8FF204605F0FAFF204627
:1003300010BD000030B500231A468B420ADAC55CB6
:10034000054C85EA1225013334F8154084EA02226F
:1003500092B2F2E7104630BD28C8000807B5024641
:10036000086849686B4603C3481011F0010F18BFB5
:100370001158009B104418BFCB58984703B05DF844
:1003800004FB00002DE9F04F8BB004460D46159993
:100390009DF85C7091461E4600F000FF564B2360AE
:1003A00004F5147B04F511704FF0FF3A05F07EFB65
:1003B000334629464A4604F52075CDF800A0584634
:1003C00005F08EFA28460021142206F0C6FB04F53B
:1003D0002578012228469DF9501005F083FB9DF9F0
:1003E0005810404605F022FA0126189BC4F8F8324E
:1003F00000254846314684F8FC5284F8FD6284F8B2
:10040000FE5284F8FF62C4F8006304F0A7FE584669
:1004100008212A4605F0C4FAB7421AD14046022103
:1004200005F048FA354B0293039502AB03CB344BEE
:10043000C4F8E002C4F8E412C4F8F472C4F8DC4270
:10044000C4F8F032C4F8D85204F52B7002213A46B1
:100450001BE0022F1CD14046394605F02BFA274BF2
:100460000493C4F8F4520595C4F8C04204AB03CB1E
:10047000234BC4F8C402C4F8C812C4F8D432C4F878
:10048000BC5204F52B703146324605F029F82EE0B7
:10049000032F0CD14046314605F00CFA174B06935A
:1004A000C4F8F4520795C4F8C04206ABDFE7042F46
:1004B00018BFC4F8F4A21AD14046314605F0FAF943
:1004C0000E4B0893099508AB03CB0D4BC4F8E00223
:1004D000C4F8E412C4F8F462C4F8DC42C4F8F032A0
:1004E000C4F8D85204F52B7002213246CDE72046DD
:1004F0000BB0BDE8F08F00BF30CA000851050008FE
:100500005D030008D0F8F432013310B5044611D071
:1005100000F5257005F0D2F9D4F8F432984209D0EC
:10052000D4F8003343F00303C4F80033002384F805
:10053000FC3210BDD4F8003323F00203C4F80033BA
:1005400010BD10B50446FFF7DDFFD4F8000310BD61
:1005500008B5FFF7D7FF08BDF8B500F511740546DB
:1005600020460F4605F066FA05F51470FF2105F0E8
:1005700001FAC6B24EB1204605F086FA204605F0D3
:100580008DFA301C18BF0120F8BD204605F06EFA28
:10059000B842F0DAE8E7D0F88C32B0F884221A805A
:1005A00000F51470FF2105F0E5B938B5D0F89032A8
:1005B000B0F884221A800446FF2100F5147005F07B
:1005C000D9F920464FF4FA71FFF7C6FF054620B966
:1005D0002046FFF7E0FF284638BD012038BD10B5A2
:1005E0000446FFF7E2FF20B12046FFF7D4FF0020CA
:1005F00010BD012010BD2DE9F04F85B01C46130E33
:100600000093C2F3074307460D4690460193C2F399
:10061000072B4FF00309A5F15603012B13D9A5F1C0
:100620006903012B0FD9009B8DF80930019B8DF8D0
:100630000A3097F8FD328DF808508DF80BB08DF820
:100640000C8093B115E00022384677211346FFF75E
:10065000D2FF012877D83846FFF79DFF3846FFF7CD
:10066000A4FF0028DFD1FF206DE005F0F703402B49
:1006700009D102A8052100F02BFC400040F0010048
:100680008DF80D0002E001238DF80D304FF0000AC7
:1006900002AB07F5147613F80A1030460AF1010A86
:1006A00005F068F9BAF1060FF2D14C2D03D13046AE
:1006B000FF2105F05FF94FF0090A3046FF2105F0F0
:1006C00059F9030605D45FFA80FABAF1FF0F04D195
:1006D00038E0BAF1010AF0D1F5E71AF0080F2DD190
:1006E000BAF1010F2ED84D2D05D15CB33046FF2154
:1006F00005F040F920E0482D01D07A2D22D10CB32D
:10070000FF21304605F036F900062060FF21304613
:1007100005F030F9226842EA00402060FF213046AF
:1007200005F028F9226842EA00202060FF213046C7
:1007300005F020F922681043206003E0B9F10109B7
:100740007FF469AF504605B0BDE8F08FF8B50446B8
:100750000F4616461D46FFF728FF58B12B4639466F
:1007600032462046FFF747FF05462046FFF713FFB6
:100770002846F8BDFF20F8BDF7B50446FFF7C2FED6
:10078000D4F80003860700F1ED80C50740F1EA8048
:1007900004F514763046744905F0F8F8D4F88C3234
:1007A000B4F884221A800A253046FF2105F0E2F8C9
:1007B000013DF9D12A46204640212B46FFF7C6FFCE
:1007C0000128024640F0BB8094F8FD323BB1204640
:1007D0007B212B46FFF7BAFF012840F0B08020466E
:1007E00048214FF4D57201ABFFF7B0FF012828D1A3
:1007F000019BC3F30B03B3F5D57F40F0A0802046E7
:100800007A21002201ABFFF7A1FF012840F0978079
:10081000019BD90240F1938004F51175284605F03B
:1008200009F920466921514A0023FFF78FFF01286B
:10083000074612D1284605F019F9B0F57A7FF0DBAA
:100840000BE020467A21002201ABFFF77FFF012851
:1008500075D1019BDB0272D577E0284605F014F9CB
:10086000284605F01BF9002F69D120467A213A4627
:1008700001ABFFF76BFF002861D1019B5A0001D546
:10088000032300E0022384F8FC323949D4F8F8321B
:1008900031E0284605F0EAF8B0F57A7F09DA20461B
:1008A00069214FF480120023FFF750FF012807460B
:1008B000EFD0284605F0E8F8284605F0EFF8002FBD
:1008C000E0D0284605F0B6F8204641214FF48012CA
:1008D0000023FFF73BFF012807463CD0284605F0E0
:1008E000D3F8284605F0DAF84FBB012384F8FC3230
:1008F0002049D4F8F8328B42D8BF1946304605F06B
:1009000045F894F8FC32012B06D0002220466A21DB
:100910001346FFF71BFF90B994F8FC32032B07D066
:10092000204650214FF400720023FFF70FFF30B92B
:10093000D4F8000320F00100C4F8000312E00423FF
:1009400084F8FC32D4F800030CE004F51175284655
:1009500005F070F8A3E7284605F088F8B0F57A7F2F
:10096000BCDAB1E703B0F0BD801A06000000104009
:1009700040787D01002D31012DE9F84300F5117516
:10098000064628460F46904605F054F806F51474BE
:100990002046FF2104F0EEFF5FFA80F9B9F1FF0F66
:1009A00005D1284605F062F8B0F5FA7FEEDB28465F
:1009B00005F06AF8284605F071F8B9F1FE0F43D149
:1009C00096F8FE52E5B120461021002204F0E8FF1F
:1009D0000025454520464FF6FF7108DA04F0CAFFAE
:1009E000C0F307237B557B1902355870F1E704F0FB
:1009F000C1FF082185B20022204604F0D1FF14E097
:100A0000454520464FF0FF0104DA04F0B3FF785566
:100A10000135F5E704F0AEFFFF210546204604F05E
:100A2000A9FF2D02ADB2284385B296F8FD3243B13D
:100A300038464146FFF77EFC2B1A58425841BDE824
:100A4000F8830120BDE8F8830020BDE8F8837FB576
:100A5000D0F80033DB07044654D403252046FFF7C3
:100A6000A4FD00284BD00022204649211346FFF761
:100A7000C2FD002843D1204669461022FFF77CFFC3
:100A800006462046FFF787FDBEB39DF800309DF86F
:100A900008209DF807109B11012B9DF809300CD1FF
:100AA00043EA022301F03F0443EA04440134E1171E
:100AB0008B0243EA9453A20226E09DF806008900C7
:100AC00041EA921200F0030042EA80209DF80A20D9
:100AD00003F00303D20942EA430201300232C11794
:100AE0000BF04EF99DF8052002F00F020BF048F9CB
:100AF000420A42EAC1524B0A06E0013DAED120460D
:100B0000FFF749FD002200231046194604B070BDCE
:100B10002DE9F047D0F800739DF8209017F00107F9
:100B200006468A4614461D4665D1B9F1010F38D9EB
:100B3000B8463046FFF739FD002839D096F8FC3228
:100B4000032B0CBF22466202304652210023FFF7DE
:100B500052FD68BB304651464FF40072FFF70CFF60
:100B600010B908F101080BE0013445F10005B9F1B5
:100B700001090AF5007A02D04FF00008EAE7C846FA
:100B8000002230464C211346FFF735FD80B9304630
:100B9000FFF701FDB9F1000F2ED0B8F1020FC8DD4B
:100BA00006E09046540203253046FFF7FEFC20B9CC
:100BB0003046FFF7F0FC01271EE096F8FC22304695
:100BC0005121032A14BF224642460023FFF713FD9A
:100BD00007460028ECD1304651464FF40072FFF72B
:100BE000CBFE81463046FFF7D6FCB9F1000F03D1AA
:100BF000013DD9D1DCE703273846BDE8F08790F8FE
:100C0000FD322DE9F04105460F46904633B10846C6
:100C10004FF40071FFF78EFB064601E04FF6FF76BA
:100C200028464FF4FA71FFF797FC00283AD005F5F3
:100C300014742046414604F09DFE95F8FE52DDB145
:100C400020461021002204F0ABFE00257B19795DBF
:100C50005B78204643EA0121023504F08BFEB5F5AE
:100C6000007FF3D13146204604F084FE204608215F
:100C7000002204F095FE0FE0795D2046013504F076
:100C800079FEB5F5007FF7D13112204604F072FEEF
:100C90002046314604F06EFE2046FF2104F06AFE35
:100CA00000F01F00BDE8F0812DE9F04F85B0CDE9DF
:100CB0000023DDF838B006468A465F46144689466A
:100CC0004FF0000896F8FC32012B04D13046FFF7B4
:100CD0006CFC48B988E0304657213A460023FFF7BC
:100CE00035FD0028F2D07FE096F8FC32032B0CBFD4
:100CF00022466202304659210023FFF77CFC00287F
:100D000072D130464946FC22FFF779FF0528044698
:100D100002D008F1010807E0013F09F5007902D08F
:100D20004FF00008EDE7B84630464FF4FA71FFF790
:100D300013FC0546002857D0BFB9FD2106F51470F5
:100D400004F018FE3046FFF726FC96F8FF42002C10
:100D500055D030464D213A4603ABFFF7F7FC00284B
:100D600042D1039B002B3FD143E0002230464C216F
:100D70001346FFF740FC0746002835D13046FFF701
:100D80000AFC0A2C30D196F8FC32012B35D03046C3
:100D9000FFF70BFC88B3304656213A463B46FFF737
:100DA0002AFC98B9304603A90422FFF7E5FD10B3E9
:100DB0009DF80D709DF80C303F0447EA03679DF8DD
:100DC0000F301F439DF80E3047EA03273046FFF7E8
:100DD000E2FBDDE90045E419B8F1020F0AEB47290F
:100DE000C7EB0B077FF76EAF3046FFF7D4FB00254C
:100DF00005E0254603E00746E8E70027E9E728463F
:100E000005B0BDE8F08F2DE9FF47D0F800C39DF88D
:100E100030701CF0010F0646884642D11CF0040FCA
:100E200041D1012F06D90097FFF73EFF80F0010066
:100E3000C0B23BE09246540203253046FFF7B5FBB3
:100E400050B396F8FC2230465821032A14BF22469C
:100E500052460023FFF7CFFB0746E8B94146FE2282
:100E60003046FFF7CCFE81463046FFF794FBB9F1E0
:100E70000A0F0FD0B9F10C0F0ED096F8FF32A3B1C4
:100E800030464D213A4603ABFFF760FC20B9039B87
:100E900013B90AE0013DD0D13046FFF77CFB0120B9
:100EA00004E0032002E0022000E0002004B0BDE8DE
:100EB000F08710B5044600F097F8D4F8003300200E
:100EC00043F00103C4F8003384F8FC0210BD0000B5
:100ED00010B500231A468B4206DAC45C84EA42024B
:100EE000024C0133A25CF6E7104610BD70CA000840
:100EF0004FF0FF3070477047014B0360704700BFF1
:100F000078CB000808B510B103689B6998470020AA
:100F100008BD002343817047408970474181704775
:100F2000014B0360704700BF78CB000810B5034B3E
:100F30000360044605F0F5F9204610BD78CB0008A3
:100F400010B5034B0360044605F0EBF9204610BDD5
:100F500078CB000830B589B000F1280405464FF47D
:100F60008073043069460694079301F017FEA0B918
:100F70009DF8090090B195F8283063B90DF1090387
:100F800022460DF1150153F8040B42F8040B8B4275
:100F9000F9D11B781370204600E0002009B030BD65
:100FA00070B50446064B44F8043B0D4606460FCD8B
:100FB0000FC40FCD0FC42B682360304670BD00BF37
:100FC000A0CB000800207047002070470020704729
:100FD000014608B5103190F8400201F087FA003060
:100FE00018BF0120404208BD036810B59B6B044642
:100FF0009847014640B994F8400201F077FA003072
:1010000018BF0120404210BD4FF0FF3010BD00005E
:10101000084B10B50360084B1A688242044604D19D
:1010200000200146186001F061FA204604F064FBDC
:10103000204610BDC8CB0008B005002010B50446FE
:10104000FFF7E6FF204605F06CF9204610BD10B50D
:101050008AB001A801F070FD48B94FF4947005F012
:1010600065F901A90446FFF79BFF204600E0002038
:101070000AB010BD08B5084601F01AFE003018BFCE
:101080000120404208BD08B500214FF4007290F8DD
:10109000400201F04FFF003018BF0120404208BD60
:1010A00008B50846114601F0C7FE003018BF012000
:1010B000404208BD08B5084601F09CFD003018BF4D
:1010C0000120404208BD000030B50546ADF2A46DD8
:1010D0000B46144686A8D5F840221F4906F0DAFAD6
:1010E000A50705D414F0010F0CBF0122022200E075
:1010F0000322A00505D561054CBF42F0080242F06D
:10110000100296A886A901F001FA00BB230703D5B7
:1011100096A8999901F073FC0DF27C4496A94FF4BE
:101120000972204605F010FD4FF40A7005F0FEF834
:101130000DF5916105464FF40672684605F004FD11
:1011400094E80E00284600F0A3F8284600E00020AE
:101150000DF2A46D30BD00BF08CC000807B501A892
:1011600004F0F6FC01A805F07BFCC36882681B0450
:1011700043EAC222436842EA43130268022192FB17
:10118000F1F21A4343690069503B42EA436301307C
:1011900043EA405003B05DF804FB000038B5044654
:1011A0000D4604F0BDFA094B2360094B186820B1C5
:1011B0000848294604F002FC06E0C4F8400204F1A5
:1011C00010011C6001F092F9204638BDC8CB000820
:1011D000B00500200FCC0008002070470069704760
:1011E00038B50446043001F003FC05461CB1236801
:1011F00020461B6A9847284638BD000010B5034BAF
:101200000360044602F09CF9204610BD50CC000853
:1012100010B50446FFF7F2FF204605F082F820469D
:1012200010BD08B5043001F0C1FA003018BF01202C
:10123000404208BD022A10B5044601D1036902E00C
:10124000012A01D1C3681944201D01F0D8FB08B957
:10125000E06810BD4FF0FF3010BD07B5043001ABA2
:1012600001F0F2F908B9019801E04FF0FF3003B046
:101270005DF804FB07B5043001AB01F0E7FA08B9EB
:10128000019801E04FF0FF3003B05DF804FB00006F
:1012900084B038B505AC84E80E00074A05462146FF
:1012A00040F8042B4FF4097205F04EFC2846BDE8C7
:1012B000384004B0704700BF50CC000808B5044B5C
:1012C00053F8200003689B6A9847C0B208BD00BF6E
:1012D000B005002008B5044B53F820000368DB6A12
:1012E0009847C0B208BD00BFB005002013B5074C39
:1012F00054F8200004680093246B0023A0470028C2
:1013000014BF0420002002B010BD00BFB0050020B3
:1013100013B5074C54F8200004680093646B002355
:10132000A047002814BF0420002002B010BD00BF59
:10133000B0050020012938B50C46154610D004D35D
:10134000032918D10123136013E00E4B53F820003A
:1013500098B103689B6B9847003018BF012038BDD7
:10136000084B53F8200040B10368DB6B984730B15D
:101370002860002038BD042038BD032038BD204639
:1013800038BD00BFB005002010B50023934203D044
:10139000CC5CC4540133F9E710BD0244904202D042
:1013A00000F8011BFAE77047C1F307238176090CA7
:1013B00001750912C3764175704700231A46C15C56
:1013C000013301EBC21101EB52020B2B02F0FF02C1
:1013D000F5D1104670472DE9F041C56A8D420446AB
:1013E0000E4602D10020BDE8F081037913B9002E2A
:1013F000F8D01FE000F13008414640782A4601232A
:10140000FFF786FF10B10120BDE8F081E269236A91
:10141000207113449D42EAD2E778012FE7D9E369AE
:1014200060781D4441462A460123013FFFF770FFC3
:10143000FFB2F2E7607804F1300132460123FFF792
:1014400055FF0028DFD1E662BDE8F08108B50368EA
:1014500073B11A7862B1D9888288914208D15878DC
:10146000FFF738FF10F0010F0CBF0020032008BD6C
:10147000092008BDF8B503690C4601F10902002BEB
:1014800043D043691E7B0025595D20290FD00529D3
:1014900008BFE521370705D5A1F14107192F9CBFEA
:1014A0002031C9B20135082D02F8011BECD1197A9F
:1014B000202913D02E21117008250132595D2029D1
:1014C0000CD0F70605D5A1F14107192F9CBF20319B
:1014D000C9B201350B2D02F8011BEFD1D97A217267
:1014E000997FDD7F090441EA05611D7F29435D7F06
:1014F00041EA052121605D7E197E41EA0521A18036
:10150000D97D9B7D43EA0123E38000251570A66900
:10151000E6B1E369D3B103690BB9002514E0028C8D
:101520004FF6FF739A42F8D0C76937F8150058B1E3
:10153000002101F0BBFF0028EFD0E369013B9D4291
:10154000EBD270550135F0E700237355F8BD70B547
:1015500000210446FFF73FFF0546002D51D12378B7
:10156000032B46D16379002B43D004F1300630467B
:1015700029464FF40072E562FFF70FFF552384F808
:101580002E32AA2384F82F32522384F8303084F884
:101590003130612384F8323084F81732236984F8BB
:1015A0001832412284F8332084F81622C3F307222C
:1015B00084F819221A0C1B0E84F81B32E36884F895
:1015C0001A22C3F30722722184F81C3284F81D22E8
:1015D0001A0C1B0E84F8141284F8151284F81E22BB
:1015E00084F81F326078626931460123FFF790FE6C
:1015F0006571002160780A46FFF79CFE003018BF35
:10160000012070BDCA7E8B7E032843EA022305D1E8
:10161000487D0A7D42EA002243EA024318467047A9
:1016200010B504460A46407804F130010123FFF763
:101630005DFE80BB94F82E3294F82F2243EA0222FA
:10164000174B12B29A4228D194F8682094F8693066
:10165000120442EA036294F866301A4394F8673041
:1016600042EA03220F4B22F07F429A4216D094F8AE
:10167000840094F88520000440EA026094F88220F7
:10168000104394F8832040EA022020F07F40C01AE3
:1016900018BF012010BD032010BD022010BD00BFE7
:1016A00055AAFFFF464154002DE9F0411546026856
:1016B0001378303B092B05D854783A2C02D10232EA
:1016C000026000E0002300220A60002B40F0368117
:1016D000B34B1C68002C00F034810C60237873B18C
:1016E0006078FFF7F7FDC60709D4002D00F02C81C4
:1016F00010F0040F0CBF00200A20BDE8F08100208C
:1017000020706070FFF7DAFDC10700F1208115B18C
:10171000420700F11F8120460021FFF781FF0128C9
:1017200018D194F8F23113B90D20BDE8F08194F886
:10173000F86194F8F931360446EA036694F8F63114
:101740001E4394F8F73146EA032620463146FFF758
:1017500067FF00E00026032800F0FF800028E3D1A7
:1017600094F83C2094F83B3043EA0223B3F5007F21
:10177000DAD194F8470094F8463053EA00200DD1AE
:1017800094F8560094F85730000440EA036094F847
:101790005430184394F8553040EA032094F84050F0
:1017A000E0616B1E012BE570BED894F83D10A1706E
:1017B0000029B9D04B1E0B42B6D194F8413094F8B1
:1017C000422043EA022213072281ADD194F84470EB
:1017D00094F8433053EA07230DD194F8523094F82B
:1017E00053701B0443EA076394F850703B4394F82A
:1017F000517043EA072394F83F8094F83E7057EA0B
:10180000082891D005FB00FC08EB12176744BB4287
:101810008AD3DB1BB3FBF1F3002B85D040F6F571C7
:101820008B4206D94FF6F575AB428CBF03250225D6
:1018300000E001250233374406EB0801032DA361C4
:10184000A762216213D1002A7FF46EAF94F85E2064
:1018500094F85F10120442EA016294F85C100A43A3
:1018600094F85D1042EA012262629B0010E0002AB7
:101870003FF45AAF022D4FEA430218BFD218614419
:1018800018BF03F0010361620CBF134603EB520360
:1018900003F2FF13B0EB532FFFF446AF4FF0FF33CB
:1018A0002361032D4FF00003E3603BD1637194F893
:1018B000612094F86030607843EA02223244626129
:1018C00004F130010123FFF711FD58BB94F82E32CB
:1018D00094F82F2243EA0222324B12B29A4221D1CB
:1018E00094F8322094F83330120442EA036294F8F8
:1018F00030301A4394F8313042EA03222A4B9A429C
:1019000010D194F8162294F81732120442EA0362B6
:1019100094F814321A4394F8153242EA0322234B06
:101920009A421DD0224A25701388002001339BB2B1
:1019300020711380E380E062BDE8F0810B20BDE8F8
:10194000F0810C20BDE8F0812846BDE8F08103203D
:10195000BDE8F0810A20BDE8F0810120BDE8F081FA
:1019600094F81E3294F81F221B0443EA026394F891
:101970001C22134394F81D2243EA0223E36094F8E7
:101980001A3294F81B221B0443EA026394F81822CB
:10199000134394F8192243EA02232361C2E700BFEC
:1019A000B805002055AAFFFF525261417272416191
:1019B000B405002083690239023B99423DBF827819
:1019C000836A02FB0130002070470129F8B5044604
:1019D0000D465DD9836999425AD20378022B27D0EC
:1019E000032B37D0012B50D101EB5106016A01EBDB
:1019F0005621FFF7F0FC002847D1C6F30803216AFF
:101A000023440136204601EB562193F83070FFF74E
:101A1000E2FC002839D1C6F308063444EB0794F8F9
:101A2000300047EA00204CBF0009C0F30B00F8BDAE
:101A3000016A01EB1521FFF7CEFC30BB6D0005F408
:101A4000FF7563192C4493F8303094F8310043EA61
:101A50000020F8BD016A01EBD511FFF7BCFCA0B96D
:101A6000AD0005F4FE7505F1300323442C44D8780D
:101A70009A785B78000640EA024040EA032094F836
:101A80003030184320F07040F8BD4FF0FF30F8BD03
:101A90000120F8BD70B504460D46E180816801293A
:101AA00001D1022070BD03689A699142F9D271B9DF
:101AB0001A78032A01D1596A49B90022E2601A89C9
:101AC000AA42EED95B6A03EB1513236119E09E78F5
:101AD0003601B5420ED32068FFF777FF431C01465D
:101AE00018D00128DDD923689B699842D9D2AD1B53
:101AF000ADB2EEE7E1602068FFF75CFF00EB151088
:101B00002061236805F00F05303303EB4513636153
:101B1000002070BD012070BD0129F8B504460D46B6
:101B200016466FD9836999426CD20378022B38D05C
:101B3000032B47D0012B61D101EB5107016A01EB67
:101B40005721FFF748FC002859D1C7F3080315F0C7
:101B500001052344F2B206D093F8301001F00F01D2
:101B600041EA0212D2B2216A83F830200137012300
:101B70002371204601EB5721FFF72DFC00283ED1B1
:101B8000C7F30807274415B1C6F3071606E097F810
:101B90003030C6F3032623F00F031E4387F830606E
:101BA0002DE0016A01EB1521FFF715FC38BB6D0034
:101BB00005F4FF75631983F83060C6F3072683F8D0
:101BC00031601CE0016A01EBD511FFF704FCB0B9EC
:101BD000AD0005F4FE7505F1300323442544DA78A1
:101BE000120602F070421643C6F3072285F83060F1
:101BF0005A70320C360E9A70DE7000E0022001231B
:101C00002371F8BD0220F8BDF8B505460F4631B97D
:101C1000C6686EB183699E4228BF012609E0FFF7BE
:101C2000D4FE01283BD9AB69984239D33E4600E047
:101C300001263446AB6901349C4204D3012E01D8FD
:101C40000020F8BD022428462146FFF7BEFE48B119
:101C5000411C02D14FF0FF30F8BD01281FD0B44223
:101C6000E8D1EDE7284621466FF07042FFF754FFB8
:101C700098B947B92B69EC605A1C0CD0013B2B6119
:101C800001236B7107E0284639462246FFF744FFDF
:101C90000028EFD001E02046F8BD0128DAD001206D
:101CA000F8BD2DE9F843C6880136B6B204460F46A2
:101CB00016B90420BDE8F8830369002BF9D016F0AB
:101CC0000F085CD1C16801330361006819B9038949
:101CD000B342EED953E08278013A12EA16124ED19D
:101CE000FFF773FE0128054602D80220BDE8F883FD
:101CF000421C02D10120BDE8F883206883699D421F
:101D000037D3002FD5D0E168FFF77EFF05460028C6
:101D10003ED00128E9D0431CECD020680021FFF719
:101D20005AFB07460028E5D12068394630304FF489
:101D30000072FFF732FBD4F8009029464846FFF7BF
:101D400039FEC9F82C0023689978FAB291420DD96E
:101D500001221A7120680021FFF73DFB013700289E
:101D6000C8D12368DA6A0132DA62ECE7D96A8A1AE2
:101D7000DA62E56020682946FFF71CFE20612368CF
:101D8000E680303303EB481363610020BDE8F8833D
:101D90000720BDE8F88300002DE9F84F4FF0FF0859
:101DA0000646444630683169FFF715FB07460028B0
:101DB0007ED175692B78002B6CD0E97AE52B01F088
:101DC0003F025ED0090702D50F2A5AD101E00F2A3F
:101DD00047D1D6F81CB0BBF1000F53D05A0606D538
:101DE00003F0BF04F38895F80D80338401E0A3422B
:101DF00047D16B7B434544D12F7827F04007013F03
:101E00000D235F434FF001094FF0000A2A4B1AF8E7
:101E10000330EA18EB5C507843EA0020B9F1000F78
:101E20000CD001F05FFBFE2F81462AD83BF817004B
:101E300001F058FB814524D1013703E04FF6FF73D1
:101E400098421ED10AF1010ABAF10D0FDED12B78AA
:101E50005B0621D5B9F1000F1ED03BF81730DBB17E
:101E60000FE0E4B92846FFF7A8FA804517D11FE034
:101E70000B2B1DD0E95C0133D01810F8010C8842FF
:101E8000F6D0FF2430460021FFF70BFF074600285D
:101E900088D00DE004270BE0013CE4B2F2E74FF6F6
:101EA000FF73B2693384D37A13F00103E9D1E1E718
:101EB0003846BDE8F88F00BF78CC00082DE9F74F11
:101EC0000B782F2B0646894601D05C2B01D109F1F6
:101ED00001090024B46099F800301F2B5ED8304609
:101EE0002146FFF7D7FD74610DE101333AF8131075
:101EF0002029FAD02E29F8D00BB144F00304424631
:101F000032F8021D2E2901D0013DF9D14FF0000B0E
:101F10004FF008085F465A1C3AF81330002B40F087
:101F20008880B3691A78E52A04BF05221A70B8F1CF
:101F3000080F04BFBF00FFB207F00C030C2B00F02A
:101F4000B58007F00302032A00F0B080A10709D48E
:101F500007F00307012F08BF44F01004042B08BF4B
:101F600044F00804B3693046DC720021FFF792FDAB
:101F700010B93046FFF710FFB369DB7A002840F054
:101F800098805A0700F1BF807169CB7ADB0640F177
:101F9000978033681878FFF735FBB0604F4609F13A
:101FA00001093B782F2BF9D05C2BF7D0D6F81CA079
:101FB00000256C1C3B1913F8010C1F2816D92F287B
:101FC00014D05C2812D0B4F5807F00F096800121F7
:101FD00001F06CFA002800F090807F2817D84B4A57
:101FE00012F8013F9BB18342FAD186E01F2899463F
:101FF0008CBF002404240AEB4503002D7DD033F868
:10200000022D202A01D02E2A07D1013DF5E70AEB47
:102010004403254623F8020CCBE700272AF8157065
:10202000B06920210B22FFF7B8F90AEB45083B46BF
:102030005CE7202B03D02E2B05D1AA425FD044F0C1
:102040000304134667E7C34502D2AA4216D156E0FD
:10205000B8F10B0F04D144F003044FF00B0860E714
:10206000AA4203D044F003043FF65BAFBF00FFB2C7
:102070002A464FF00B084FF0080BE2E77F2B0ED9F2
:1020800018460021019201F011FA019A034618B195
:102090001F490B4413F8803C44F0020493B11D48DF
:1020A00010F8011FB9B19942FAD10BE044F00204D3
:1020B0004CE7042827D113F0040F08BF052022E0C5
:1020C000052020E044F003045F23B16901F80B30E0
:1020D0000BF1010BB5E7A3F1410189B2192902D82F
:1020E00047F00207F1E7A3F1610189B21929ECD8A1
:1020F000203B47F001079BB2E7E7062003E0B8F179
:102100000B0FB3D1A7E703B0BDE8F08F04CD0008F3
:1021100085CC00080DCD00082DE9F041FF270546CC
:102120003C4604262969002963D02868FFF753F943
:10213000064600285ED16B691A78002A64D0E52A29
:10214000D87A4DD02E2A4BD000F03F01000702D59F
:102150000F2945D101E00F293BD1510605D502F0E9
:10216000BF04EA885F7B2A8401E0A24238D15A7B0F
:10217000BA4235D11A78EE6902F03F020D21013AD8
:102180004A434FF0010E0021224811F800C003EB32
:102190000C0090F8018013F80C0040EA0820BEF112
:1021A000000F06D0FE2A1BD826F812008646013200
:1021B00003E04FF6FF7C604512D101310D29E3D1D8
:1021C0001B785B0619D5FE2A0AD8002326F81230A0
:1021D00013E0ACB91846FFF7F0F8874210D115E0CC
:1021E000FF2428460021FFF75CFD0646002899D011
:1021F00000E05EB100232B6108E0013CE4B2F0E7AF
:102200004FF6FF732B8401E00426F3E73046BDE868
:10221000F08100BF78CC000838B5018CC5884FF636
:10222000FF73994208BF29460446FFF733FC014675
:10223000B8B921692068FFF7CEF8014670B9636923
:10224000E5221A70236801221A71E388AB4208D292
:102250002046FFF726FD01460028EAD0042908BFE2
:102260000221084638BD012970B504460D4622D921
:10227000836999421FD2A3699D4205D2204629460F
:10228000FFF7A3FB064608B9002070BD012812D055
:10229000411C0ED0204629460022FFF73DFC58B9CC
:1022A00023695A1C03D0013323610123637135462E
:1022B000E1E7012070BD022070BD73B51C461646D3
:1022C0000B220546FFF760F8052C0BD9B21E32F839
:1022D000023F03EBC4339BB203EB54045388A4B214
:1022E000002BF4D1072304F00F0101F13002392A49
:1022F00088BF01F13702013B02A91944240901F802
:10230000072CF0D102AA1A447E2102F8081C9C4234
:1023100004D02A5D202A01D00134F8E7072B05D824
:1023200002AA1A44013312F8082C00E020222A5590
:102330000134072CF2D902B070BD00002DE9FF4135
:102340008569C7690C220446294601A8FFF71CF8D5
:102350009DF80F30DA071FD50023EB720126E361E9
:10236000284601A93A463346FFF7A7FF2046002139
:10237000FFF790FB48B92046FFF70EFD28B901365C
:10238000B6B2642EECD10720AAE0042840F0A88061
:102390009DF80F30EB72E7619DF80F309B070DD56C
:1023A00000239AB2013337F812100029F9D102F153
:1023B00019070D2397FBF3F7BFB200E00127204672
:1023C0000021FFF767FB002840F08A80064605469B
:1023D00020682169FEF7FFFF002840F081806369D3
:1023E0001B78E52B00D033B905B9E6880135ADB2CD
:1023F000BD4201D107E0054620460121FFF751FC0F
:102400000028E5D06CE0012D50D020463146FFF782
:1024100041FB002864D1A069FEF7CFFF013D0646CD
:10242000ADB220682169FEF7D6FF0346002B57D1D5
:102430006269D4F81CE056730F20E9B20D27D07200
:10244000481E784313739376D3761F464FF6FF7C6E
:102450006345DFF894C018BF3EF8103017F80CC081
:1024600002F80C3094444FEA23288CF8018007F1DD
:1024700001074FF6FF7C18BF0130002B08BF6346F1
:102480000D2FE3D1634502D03EF810300BB941F077
:1024900040011170236801221A7120460021FFF7C4
:1024A00000FCE8B9013DADB2002DBAD12068216928
:1024B000FEF791FF054690B966692946304620220D
:1024C000FEF76BFF0B223046A169FEF75DFFA369A3
:1024D000DB7A03F018033373236801221A7128464C
:1024E00004B0BDE8F08100BF78CC000848B9064AC6
:1024F000136803B1187009B100230B70116000203C
:1025000070470B20704700BFB80500202DE9F0434D
:102510008FB0164601910546002800F089800023FF
:10252000036005A901A802F01E02FFF7BDF800280C
:1025300040F0858002AB0B9305A8424B01990C93A8
:10254000FFF7BCFC0A9C10B9002C08BF062016F04F
:102550001C0F06F01F0742D048B1042802D105A87D
:10256000FFF7ECFE47F008070A9C30B167E0E37A1A
:1025700013F0110F62D173075CD43E0738D5FEF714
:10258000EDFDC0F307230026A073E373DDF814808C
:10259000E672030C000E237426776677A677E6773B
:1025A000607498F800002146FFF72CF80123A67606
:1025B000E6762675667588F804300646C0B1404652
:1025C0003146D8F82C90FFF74EFE002837D10598F9
:1025D000013EC6604946FEF7FEFE48B12FE00028E6
:1025E0002DD1E37AD80627D4B10701D5DA0725D44F
:1025F000059E3B0748BF47F02007F36AEB612C625A
:10260000AF7130782146FEF7FDFF2861A37FE27F9E
:102610001B0443EA0263227F1343627F2E6043EA76
:1026200002230020EB60F388A860A861AB8006E07D
:10263000092004E0082002E0042000E007200FB099
:10264000BDE8F083BC0500202DE9F84F9A46002331
:10265000CAF8003004460F461646FEF7F7FE00287B
:1026600040F0A280A379180600F19A80D90740F1C2
:102670009A80E168A368CD1AAE4238BF3546002D76
:1026800000F08B80A368C3F30802002A6CD1206895
:1026900090F802B00BF1FF3B0BEA532B1BF0FF0B42
:1026A0000AD10BB9206902E06169FFF78EF90128B0
:1026B00009D9421C50D06061D4F800906169484645
:1026C000FFF778F920B9A37963F07F03A37167E07E
:1026D0005FEA552800EB0B0622D099F8023099F8F2
:1026E000010008EB0B029A4288BFCBEB03085FFAAC
:1026F00088F339463246FEF7F9FDA37968BB5B06DD
:102700000BD5A369981B404507D207EB402004F185
:1027100024014FF40072FEF737FE4FEA482631E0FD
:10272000A269B2421FD0A37913F0400F04F124082C
:102730000AD0012399F801004146FEF7E9FDA3798B
:1027400058B923F04003A3712368414658783246B4
:102750000123FEF7CBFD30B1A37963F07F03A371B2
:102760000120BDE8F88FA661A168C1F30801C1F599
:102770000076B54238BF2E462144384624313246D1
:10278000FEF702FEA3683344A360DAF80030334456
:102790003744CAF80030AD1B71E72846BDE8F88F12
:1027A0000220BDE8F88F0720BDE8F88F70B5044619
:1027B000FEF74CFE002848D1A37903F0200202F076
:1027C000FF00002A41D05B060DD52146A26951F8D1
:1027D000243B58780123FEF79BFD002833D1A379D1
:1027E00023F04003A3712068E169FEF7F4FD06467B
:1027F00058BB256AEB7A43F02003EB72E3682B7732
:10280000A3891B126B77E389AB77E37BEB772846D1
:102810002169FEF7C9FDFEF7A1FCC0F30723A875E7
:10282000EB75030C000E2B766876AE74EE74A3790C
:1028300023F02003A371236801221A712068BDE8E8
:102840007040FEF784BE012070BD70BD2DE9F74FCA
:1028500099460023C9F80030044688461546FEF71D
:10286000F5FD002840F0C180A3791E0659D49907D0
:1028700040F1B480E368DD4228BF0025074632E01E
:102880005FEA552B00EB0A067BD09A7858780BEB61
:102890000A01914288BFCAEB020B414632465FFAF9
:1028A0008BF3FEF735FD002840F09A80A369991B51
:1028B00059450BD204F1240008EB41214FF400727A
:1028C000FEF762FDA37923F04003A3714FEA4B2684
:1028D0000127A3683344A360D9F800303344B044DF
:1028E000C9F80030AD1B1DB3A368C3F30802002A6A
:1028F00057D1206890F802A00AF1FF3A0AEA532A59
:102900001AF0FF0A21D173B9216921B9FFF77CF9C7
:102910000146206161B10129A3790FD163F07F03E2
:10292000A371022061E06169FFF76EF90146F1E7EA
:10293000A368E268934247D9E36045E04A1C50D05F
:10294000A3686161002B18BF0127A3795B060DD531
:102950002146A26951F8243B58780123FEF7D8FCA0
:10296000A37900283DD123F04003A3712368616956
:1029700001931846FFF71EF8019B002880D1A37928
:10298000CCE7A269B2420BD0A168E268914207D2BB
:10299000587804F1240132460123FEF7A7FCF8B968
:1029A000A661A068C0F30800C0F50076B54238BF44
:1029B0002E462044243041463246FEF7E5FCA379FA
:1029C00043F04003A37184E7A37943F02003A3718C
:1029D00017B12046FFF7EAFE002006E0072004E0DA
:1029E000A37963F07F03A371012003B0BDE8F08FEA
:1029F00010B50446FFF7DAFE00B9206010BD70B5CF
:102A000004460D46FEF722FD002840F09380A2798F
:102A1000160600F18C80E3689D4203D912F0020F84
:102A200008BF1D460022A368A2600DB900254DE035
:102A30002068867876026BB1013B691EB1FBF6F126
:102A4000B3FBF6F2914205D372421340A360ED1A34
:102A500061690AE0216939B9FFF7D6F80128014612
:102A60002DD0013052D0216161610029DED0B54204
:102A70001AD9A37920689A0704D5FFF7C5F801464B
:102A800018B910E0FEF7A1FF01464B1C3ED001290A
:102A900015D923689B69994211D2A36861613344B7
:102AA000A360AD1BE3E73546A3682B44A360C5F3E1
:102AB0000803002BBAD02068FEF77CFF20B9A37969
:102AC00063F07F03A37132E000EB5525A368C3F3E5
:102AD000080313B3A26995421FD0A37913F0400FE6
:102AE00004F124060AD02368314658780123FEF702
:102AF0000FFCA37958B923F04003A3712368314632
:102B000058782A460123FEF7F1FB28B1A37963F038
:102B10007F03A371012070BDA561A368E2689342A1
:102B200007D9E360A37943F02003A37101E00220F9
:102B300070BD002070BD000030B587B00446019123
:102B400030B301A821460022FEF7AEFD2568E0B9AA
:102B500003ABA361104BE36120460199FFF7AEF987
:102B600070B9616931B1CB7ADB060DD52878FEF7F3
:102B700049FDA060EB88A38020460021FEF78AFF74
:102B8000042801D028B100E005200023236000E0E4
:102B9000092007B030BD00BFBC0500207FB504464A
:102BA0000E46FEF753FC0546F8B926B920462946DD
:102BB000FEF770FF18E001ABA3610D4BE361204607
:102BC000FFF7AAFA042801D1256100E060B9204688
:102BD0003146FEF74FFC20460021FFF762F804283B
:102BE00002D10023236100E00546284604B070BDF1
:102BF000BC05002070B598B018AB06A943F85C0D71
:102C000001221846FEF750FD044600284BD103ABC5
:102C10000C9306A8254B01990D93FFF74FF9044635
:102C2000002840D10B9E36B1F37A13F0010F0CBF90
:102C30000024072400E00624069B31461878FEF79E
:102C4000E1FC0546002C2ED1F37ADB0619D50128CC
:102C500013D90FA806A92422FEF796FB0FA802217C
:102C60001195FEF717FF0446E8B90FA8FFF754FACD
:102C7000044620B1042804D015E0022413E0072400
:102C800011E006A8FFF7C8FA044660B925B906980E
:102C9000FEF75DFC044606E006982946FFF7E3FAD6
:102CA00004460028F3D0204618B070BDBC050020B3
:102CB0002DE9F04F91B010AC44F8340DFEF74EFA08
:102CC00007A9074601222046FEF7EEFC834605468B
:102CD000002840F0AB8004AB0D9307A8554B039937
:102CE0000E93FFF7EBF88346B8B1042840F09E80BE
:102CF00007982946FEF788FF044638B101280FD00F
:102D0000431C08BF4FF0010B02D00CE04FF0070B43
:102D100007982146FFF7A7FA88E04FF0080B85E0F7
:102D20004FF0020BF4E707982946FEF754FB834661
:102D30000028EDD1079E21463046FEF73BFE06F106
:102D4000300559464FF4007280462846FEF725FBB1
:102D5000284620210B22FEF720FB4FF02E0BC7F355
:102D6000074310225FFA87FAC7F307293F0E86F858
:102D70003B2086F848302846214686F830B086F851
:102D800046A086F8479086F849700193FEF70CFB41
:102D900006F1500C604629462022CDF800C0FEF70F
:102DA000F3FA079A86F851B010780999DDF800C057
:102DB000032803D1526A914208BF00216046FEF702
:102DC000F3FA079A9678C6B1079808F101030293BF
:102DD0000123C0F82C8003710021FEF7FCFA834622
:102DE000002895D1284659464FF40072013EFEF75F
:102DF000D4FAF6B2DDF80880E5E707A8FFF79EFAF7
:102E00008346002884D10C981023C372019B03765B
:102E100080F816A080F8179047762146FEF7C4FA8E
:102E2000079801230371FEF792FB8346584611B0C1
:102E3000BDE8F08FBC05002030B59FB01EAB0C463E
:102E400043F8740D0CA918460122FEF72DFC00284A
:102E50006CD10C9B159303AB12930CA8344B0199C6
:102E60001393FFF72BF8002860D11199002950D057
:102E700006A80B311522FEF787FA15A80CA9242203
:102E8000FEF782FA15A82146FFF718F8002842D06D
:102E900004284BD115A8FFF751FA002846D11A9CF7
:102EA000132204F10D000DF11A01FEF76DFA9DF8E1
:102EB00018300C9D43F02003E37201232B71179B04
:102EC0000E9A9A422BD0E37ADB0628D52146287841
:102ED000FEF798FB01462846FEF76CFD0146E0B17F
:102EE0002846FEF778FA0C9B00BB93F851202E2A57
:102EF00015D11A781799032A03D15A6A914208BF4B
:102F0000002103F15000FEF74FFA0C9B01221A71C9
:102F100005E004200AE0082008E0022006E00CA8F2
:102F2000FFF77AF910B90C98FEF711FB1FB030BD0E
:102F3000BC0500202DE9F04F0F4687B01546E0B9DB
:102F400001291CD8531E134019D1CA4A1468C4B1B0
:102F50002370FEF7B3F9C30715D400F0040303F0A0
:102F6000FF0093B9012105AAFEF7E4F908B1012099
:102F700095E2059B7F2BFAD909E00B208FE2132005
:102F80008DE20C208BE2032089E20A2087E2002FE9
:102F900014BF4FF000084FF03F08C8EB0303059340
:102FA0006DB94FF4FA61B3FBF1F1B34A32F8152071
:102FB000914201D20135F8E7B04A32F815505FEA84
:102FC000552905D0B9F1810F28BF4FF0800901E0E4
:102FD0004FF00109B3FBF9F640F6F572964240F264
:102FE0004C824FF6F572964240F25582B60006F2D8
:102FF0000726760A03254FF0000A4FF0200C0CEB51
:1030000008010AEB060B8B44C8EB09025A449342B1
:10301000029101D20E2042E20020032104AACDF841
:1030200000C0FEF787F9DDF800C0002840F02282DA
:10303000049B013BB3F5004F80F01C82049A531EA1
:103040005B4452421340CBEB0303032D049304D1A2
:10305000029A1A449C44029200E01E44059BCCEB69
:103060000302921BCAEB0202B2FBF9F2022D039299
:1030700005D1039940F6F5729142CBD90BE0032DAF
:1030800007D1039A4FF6F5739A42C3D94FF00C0B50
:103090000BE0022D07D1B3F5803F2CBF4FF0060B9C
:1030A0004FF0040B01E04FF0010B002F50D104F161
:1030B0003003184639464FF40072CDF800C0019332
:1030C000FEF76BF9FE2284F8F321059A84F8FA21C1
:1030D00008EB020043F6C161B0FBF1F184F8F51191
:1030E000049188083F2184F8F611C2F3072184F87F
:1030F000FB11110C120E84F8FD2155224FF0010E28
:1031000084F82E2240F03F00AA2284F8F40184F8CB
:10311000FC1184F82F2284F8EFE184F8F0E184F8C0
:10312000F17184F8F2B184F8F77184F8F87184F8D9
:10313000F971019B384619463A467346FEF7E8F89E
:10314000DDF800C000287FF412AF4FF0F80B01E06B
:103150004FF0F00B04F13007384600214FF40072B5
:10316000CDF800C0FEF719F90B2238464449FEF7A6
:103170000BF90023022284F83B3084F83C20032D15
:1031800084F83D90DDF800C084F8413018BF022378
:1031900084F84230059B84F83EC00122CCF3072C12
:1031A000B3F5803F84F83FC084F8402005D284F80E
:1031B00043301B1284F844300BE0C3F3072284F839
:1031C000503084F851201A0C1B0E84F8522084F8D9
:1031D00053303F2384F84830FF22002384F84930DD
:1031E00084F84A2084F84B3084F84D3084F84E300F
:1031F00084F84F3084F845B084F84C800193FDF793
:10320000ADFF032D049082B2019B3DD1121284F8D0
:103210007420020C84F87520C6F3072284F8552028
:10322000320C84F85620320E84F85720022284F89B
:103230005C2084F85D30012284F85E3084F85F30D1
:1032400084F8613084F86330802384F8730084F854
:103250006020000E062284F87030292384F876005E
:1032600084F8546084F8622084F8723004F17700A6
:10327000044923E0B805002060CD00084ACD0008CD
:1032800015CD000821CD0008030C84F85930C6F391
:10329000072384F84730802384F857001212000E69
:1032A00084F854307F4984F85A00292384F8582040
:1032B00084F8466084F8563004F15B001322FEF770
:1032C00063F8552384F82E32AA2384F82F32002085
:1032D000394642460123FEF71BF800287FF447AE2B
:1032E000032D05D1394608F106020123FEF710F837
:1032F000384600214FF40072FEF74FF8032D12D02C
:10330000694B012D18BF6FF0FF0343EA0B03FF2247
:10331000049384F830301B0E84F8312084F8322076
:1033200084F833301CE06BF0FF03049384F83030F2
:10333000FF2384F8313084F8323084F8333084F855
:10334000343084F8353084F8363084F8373084F8F7
:10335000383084F8393084F83A300F2384F83B3021
:10336000029B39461A4603F1010B00200123FDF7A9
:10337000CFFF014600287FF4FAAD38464FF40072C3
:10338000FEF70BF801230493049BB34213D20BF115
:10339000010C002039465A460123CDF800C0FDF744
:1033A000B7FFDDF800C000287FF4E1AD049B0133D6
:1033B0000493E346E8E75E46032D08BFCA465A4633
:1033C000002039460123FDF7A3FF0BF101098346D5
:1033D00000287FF4CCAD0AEB06034B4501D0CB4669
:1033E000EDE7032D3DD17221522384F8141284F8A5
:1033F0001512039984F8303084F83130612341226A
:1034000084F8323084F817324B1E84F8332084F865
:103410001622C3F3072284F8183284F819221A0CF2
:103420001B0E84F81B32022384F81C32552384F8C7
:103430002E32AA2384F81A2284F82F32394608F152
:103440000102012384F81D0284F81E0284F81F0281
:10345000FDF75EFF5846394608F107020123FDF7E4
:1034600057FF002001460246FDF764FF003018BFF9
:10347000012014E001230493E0E506EB4606013643
:1034800076080336012506F2FF16760A4FF0200A69
:103490004FF0010CB3E5023676000225F3E707B0E2
:1034A000BDE8F08F35CD000800FFFF007F2816D95A
:1034B00031B1FF2812D80A4B803833F8100070471A
:1034C000074A32F8112082428BB203D001318029A1
:1034D000F6D10B4603F18000C0B270470020704760
:1034E00076CD00080023064A32F8132032B190420C
:1034F00001D00133F7E7034A32F81300704700BFE9
:1035000056D0000876CE0008036870B500211D690A
:1035100001220446A847431C05460ED0216802221A
:103520000E6920460021B0472268064613692046EE
:10353000294600229847304670BD0646FBE700BF8B
:103540000D4B0E4A30B4026003F58074002501E093
:10355000A3420FD01A4652F8041B8142134608BFFB
:1035600042F8045C53F8042B8242F1D1A34243F8A1
:10357000045CEFD130BC7047BC07002058D2000873
:1035800038B50F4A0F4B02600446002503F58070E2
:1035900001E083420FD01A4652F8041B8C421346B6
:1035A00008BF42F8045C53F8042B9442F1D18342E3
:1035B00043F8045CEFD1204602F0B3FE204638BD4C
:1035C00058D20008BC070020044B186800B17047AF
:1035D00003480221032201F0DDBF00BFDC0A002006
:1035E000300C0020F0B50F4685B03049064604F097
:1035F000E4F80446002836D030462D4904F0DDF8C2
:1036000060B330462B4904F0D8F800282FD02A4860
:10361000002406E05D680134181D35B10134402CEA
:1036200029D04568031D002DF4D131783A2936D0D0
:1036300002A8314602F080F802A802F0CFF8D0B11B
:1036400002A802F0B7F8C8B102A802F0BDF803461C
:103650008BB11A49E01C41F8243002E0FFF7B4FFB7
:10366000012005B0F0BDFFF7AFFF2046F9E7FFF7F7
:10367000ABFF0220F5E74FF0FF30F2E702A802F0BF
:1036800091F805460028F6D0026802A8966802F074
:103690007DF83A4601462846B0470346D8E730460B
:1036A000074901AA04F01AF8019BD1E738D20008B3
:1036B00048D2000840D20008B8070020BC0700200C
:1036C00080D20008022808B50BDDC21E074B53F854
:1036D0002200002143F8221028B10268536898475D
:1036E00008BD002008BD4FF0FF3008BDBC0700201A
:1036F0000228F8B50D46174628DC1D490A68002A3D
:103700002DD00FB32C46EE1914F8011B1948ED43C8
:10371000AB1903F0010501F0D5FFB44214D035B167
:1037200014F8011B134801F0CDFFB4420CD025461C
:10373000104815F8011B01F0C5FF61780D486C1C9D
:1037400001F0C0FFB442F2D13846F8BD03380A4B4D
:1037500053F8200040B103681B689847F8BDFFF795
:1037600033FF002FCED1EFE74FF0FF30F8BD00BFA1
:10377000DC0A0020300C0020BC070020022810B515
:103780000C4609DC0D4A106888B10D4801F08EFF27
:1037900001212070084610BD03380A4B53F8200061
:1037A00040B103689B6898470146084610BDFFF783
:1037B0000BFFEAE74FF0FF31ECE700BFDC0A002027
:1037C000300C0020BC070020022808B508DD0338B3
:1037D000064B53F8200028B10168CA68904708BD1D
:1037E000012008BD4FF0FF3008BD00BFBC0700201E
:1037F000022808B508DD0338064B53F8200028B12D
:1038000003681B69984708BD002008BD4FF0FF30D2
:1038100008BD00BFBC070020022808B504D84FF43B
:1038200000504860002008BD02F0ACFD0923036091
:103830004FF0FF3008BD00BF70B5034682B00D46A3
:103840006846194601F078FF684601F0ABFF044670
:1038500050B1016868468E6901F098FF2A4601461A
:103860002046B04702B070BD4FF0FF30FAE700BF0E
:1038700008B5012002F0CCF8704700BF08B500F091
:10388000ADFCFFF7F9FFBDE80840FCF7E3BC00BF63
:10389000084A13681818EFF30881884202D21060B2
:1038A00018467047044B0C221A604FF0FF3318463D
:1038B000704700BF980100204C0C00200649074AC1
:1038C000074B9A42BEBF51F8040B42F8040BF8E7CD
:1038D000044880470448004774DC00089401002035
:1038E0009002002051470008E1010008FEE7FEE7D2
:1038F000FEE7FEE7FEE7FEE7FEE7FEE7FEE7FEE7A0
:103900004FF46D43CEF200034FF6FF02D9680A4030
:1039100042F0BF6242F4003100F0070041EA0022A9
:10392000DA60704708B572B6962002F079F99620F1
:1039300002F076F9F8E700BF704700BF0368012086
:103940001A6A00FA01F122EA01021A62186A0022D8
:10395000C4F2010201439342196205D01A6842F091
:103960000101196000207047596C41F4004058640F
:10397000F4E700BF0023C4F20103984230B40268A8
:103980003DD0B0F1804F2CD04FF48064C4F20004DD
:10399000A04226D04FF40063C4F20003984220D026
:1039A0004FF44064C4F20004A0421AD04FF48043A4
:1039B000C4F20103984218D04FF48844C4F20104C1
:1039C000A04212D04FF49043C4F2010398420CD0AD
:1039D0008C6809680260C46281620122426130BC65
:1039E00070474D6822F070022A43CD688C680B68DE
:1039F00022F4407129430160C4628362EDE74C68A0
:103A0000CB6822F07002144324F440742343036013
:103A10008A68C2620B68836209690163DDE700BFDF
:103A200010B5044690B190F8393063B121460222B6
:103A300051F8040B84F83920FFF79CFF012084F82B
:103A40003900002010BDFFF777FFEFE7012010BD20
:103A50004FF46D43CEF20003F0B49F689A68B2F160
:103A6000006F3B4604D0103043F82010F0BC704784
:103A70004FF0005453F8045B07F5CA7725601A46E7
:103A8000251D52F8046B66605C68131D6C602C1D6C
:103A9000BB42F4D14FF46D42CEF200024FF000531E
:103AA0009360E0E7F8B503680446D80744D54FF4BF
:103AB0006052C4F20202916801F00C00042800F088
:103AC0003781916801F00C00082800F02D8143F641
:103AD0000203C4F2020300251D7000F057FD4FF4ED
:103AE00060550646C4F2020506E000F04FFD831B58
:103AF000B3F5FA7F00F2F28029688B03F5D443F620
:103B000002062079C4F202064FF4605530706268F4
:103B1000012A00F0978100F039FDC4F20205064643
:103B200006E000F033FD811BB1F5FA7F00F2D6808C
:103B30002B689903F5D423689A073BD54FF460505E
:103B4000C4F20200816811F00C0F00F0CD80826891
:103B500002F00C01082900F0C380E668002E00F096
:103B60000B810025C4F247250120286000F00EFDDE
:103B70004FF460550646C4F2020505E000F006FD6C
:103B8000831B642B00F2AA802A684FF460539207CB
:103B9000C4F20203F2D51968F82090FAA0F2B2FA42
:103BA00082F02269C0B202FA00F221F0F8010A4361
:103BB0001A602368190726D4580741D4A16901B3B4
:103BC0004FF46056C4F20206B26802F00C000828F6
:103BD00000F0BA804FF06005C4F247254FF00003B3
:103BE00002292B6000F0DE8000F0D0FC3446054650
:103BF00004E000F0CBFC421B642A6FD821688B01E3
:103C0000F7D40020F8BD6669002E00F09F804FF4C5
:103C10006865C4F247250120286000F0B7FC4FF426
:103C200060550646C4F2020504E000F0AFFC801BBC
:103C3000642853D86B6F9A07F7D523685807BDD50A
:103C40004FF46056C4F202064FF4E045326CC4F201
:103C5000000542F080513164286840F480732B6085
:103C600000F094FC064604E000F090FC811B6429FF
:103C700034D82A68D105F7D543F67005C4F2020599
:103C800000262E7000F082FC4FF460550646C4F208
:103C9000020505E000F07AFC831BB3F5167F1DD802
:103CA000296F8A07F6D443F67000237AC4F2020023
:103CB0004FF460550370A268012A00F0D48000F030
:103CC00065FCC4F202050646296F88077FF576AFCA
:103CD00000F05CFC801BB0F5167FF5D90320F8BD21
:103CE000406840023FF539AF4FF46052C4F202021F
:103CF0001068810702D5E168012925D14FF460528F
:103D0000C4F20202F825106895FAA5F1B1FA81F51E
:103D10002169EDB201FA05F120F0F80001431160CC
:103D200019077FF549AF6EE7526851027FF5CFAEB4
:103D30004FF46051C4F20201086882037FF5FCAEC3
:103D40006268012A3FF4F8AE0120F8BD4FF46863C1
:103D5000C4F247234FF460551E6000F017FCC4F214
:103D60000205064604E000F011FC811B6429B5D869
:103D70006A6F9307F7D460E70023C4F247234FF438
:103D800060551E6000F002FCC4F20205064604E025
:103D900000F0FCFB811B6429A0D82A689007F7D4A7
:103DA000236807E700F0F2FB074604E000F0EEFBB3
:103DB000C01B642892D830684FF460558101C4F26A
:103DC0000205F3D447F6C07E9EFAAEF7B7FA87FE37
:103DD0004FF4403696FAA6F3B3FA83F34FF07061CE
:103DE00091FAA1F2B2FA82F2D4F820C0E669A16A8F
:103DF000676AE06A4CEA06065FFA8EF44908DBB2AD
:103E000046F0005607FA04F40139344301FA03F18D
:103E1000D2B2602300FA02F02143C4F2472341EA00
:103E2000000401226C601A6000F0B0FB044605E05B
:103E300000F0ACFB011B64293FF650AF2B689A01E0
:103E4000F6D5DEE600F0A2FBC4F20205064606E067
:103E500000F09CFB821BB2F5FA7F3FF63FAF28686B
:103E60008003F5D567E600F091FBC4F20205064633
:103E70002B6F9B073FF5A2AE00F088FB821BB2F5CB
:103E8000167FF5D92AE700BF4FF47053C4F202033E
:103E90002DE9F0411A680C4602F00F01A1420546D7
:103EA00009D2E2B21A70196801F00F03A34269D077
:103EB0000120BDE8F0810368980709D54FF46052EE
:103EC000C4F20202A968906820F0F00001439160FA
:103ED000D9072CD56B684FF46052C4F20202012B53
:103EE000106800F09F80022B00F0A0808107DFD5D2
:103EF0004FF46057C4F2020741F28838BE6826F0DA
:103F000003010B43BB6000F041FB6A68012A0646CF
:103F100072D0022A7BD0B86810F00C0F07D000F0E6
:103F200035FB811B4145F6D90320BDE8F0814FF4F4
:103F30007050C4F20200E2B20270016801F00F0397
:103F4000A342B5D12B685A0709D54FF46052C4F289
:103F50000202E968906820F4E050014391601B0779
:103F60000AD54FF46053C4F2020328699A6822F418
:103F7000604141EAC00098600F2000F08DFD0020F4
:103F8000BDE8F0810368990709D54FF46052C4F287
:103F900002028168906820F0F00001439160DA0726
:103FA000D1D56B684FF46052C4F20202012B106845
:103FB0005AD0022B55D082077FF57AAF4FF4605666
:103FC000C4F20206B46824F0030747EA0301B160B3
:103FD00000F0DCFA6B68012B044641F2883729D0E7
:103FE000022B32D0B26812F00C0FABD000F0CEFA38
:103FF000001BB842F6D997E7B96801F00C03042B0F
:1040000095D000F0C3FA801B4045F5D98CE7BB681A
:1040100003F00C02082A8AD000F0B8FA801B404551
:10402000F5D981E782033FF563AF41E780013FF5B2
:104030005FAF3DE7B06800F00C01042982D000F0CA
:10404000A5FA031BBB42F5D96EE7B16801F00C037A
:10405000082B3FF477AF00F099FA021BBA42F4D96B
:1040600062E78101AAD423E78003A7D420E700BF39
:104070004FF46053C4F2020310B49A6802F00C00CB
:10408000042807D008280AD04FF41050C0F2F400DA
:1040900010BC70474FF49050C0F27A00F8E75C68AB
:1040A000596804F03F044FF4800292FAA2F0B0FA8B
:1040B00080F201F48001D0B231FA00F2596847F67B
:1040C000C07393FAA3F2B2FA82F047F6C07320D11C
:1040D0004FF410520B40C0F2F402C1B223FA01F3C4
:1040E000B2FBF4F000FB03F14FF46053C4F202039F
:1040F0004FF440305A6890FAA0F3B3FA83F002F418
:104100004032C3B222FA03F0421C5300B1FBF3F079
:10411000BEE74FF490520B40C0B2C0F27A0223FACD
:1041200000F3B2FBF4F101FB03F1DDE708B5FFF7A3
:104130009FFF4FF46053C4F20203F0219B6891FA91
:10414000A1F2B2FA82F14DF2902203F0F003C9B26B
:1041500023FA01F1C0F6000240F29C13525CC2F255
:10416000000320FA02F0186008BD00BF08B5FFF791
:10417000DDFF4FF46053C4F202034FF4E05299683C
:1041800092FAA2F3B3FA83F24DF29023D2B201F481
:10419000E05121FA02F1C0F600035B5C20FA03F063
:1041A00008BD00BF08B5FFF7C1FF4FF46053C4F26C
:1041B00002034FF46042996892FAA2F3B3FA83F2D1
:1041C0004DF29023D2B201F4604121FA02F1C0F61F
:1041D00000035B5C20FA03F008BD00BF08B500F0E7
:1041E000DBF9BDE8084000F0ADB900BF704700BF83
:1041F0002DE9F0418046002846D090F85130002B40
:104200003FD0D8F80830D8F80470D8F80C60D8F847
:104210001050D8F81440D8F81C10D8F82020D8F83E
:104220000000D8F818C01F433E4335432C430223F7
:1042300088F851302143D8F8283005680A4342EA0B
:1042400003014FEA1C44D8F824200CF4007C41EA16
:104250000C0304F00404D8F82C10144325F0400596
:104260000560036044600161C269002322F40061BB
:104270000122C16188F85230184688F85120BDE803
:10428000F081FFF7B3FFBCE70120BDE8F08100BF7C
:104290002DE9F00F00238AB09946C4F20209CDF847
:1042A00004904FF400674FF440684FF48059C4F213
:1042B0000207C4F20208C4F202094FF4605C4FF432
:1042C00080620397CDF81080CDF814904FF4A0547D
:1042D0004FF4C0574FF4E0584FF40059E3464FF401
:1042E0007055C4F2020CC4F20202C4F20204C4F219
:1042F0000207C4F20208C4F202090E680292C4F274
:10430000010BC4F2010506940797CDF82080CDF883
:104310002490CDF800C003E00133102B00F0B380EF
:10432000012202FA03F202EA06049442F4D14A6836
:10433000022A00F09080122A00F08D804FEA430C90
:104340004FF00308D0F8009008FA0CF76FEA07085E
:1043500002F0030707FA0CF708EA090949EA070916
:10436000571E012FC0F800905FD9112A5DD0122A84
:104370005BD08F68D0F80C9007FA0CFC08EA0908AB
:1043800048EA0C0712F0805FC760C5D0DDF80080F6
:10439000D8F844909F0849F4804C0237C8F844C0CC
:1043A00003F003085BF827904FEA880C4FF00F08E2
:1043B00008FA0CF829EA0808DDF80490484566D0A8
:1043C000DDF80890484500F09380DDF80C904845F2
:1043D00000F09380DDF81090484500F09380DDF800
:1043E0001490484500F09380DDF81890484500F09F
:1043F0009880DDF81C90484500F09880DDF820900A
:10440000484500F08980DDF82490484500F093800D
:104410004FF41059C4F2020948450CBF4FF0090986
:104420004FF00A0909FA0CFC33E0D0F808A0CF6875
:1044300008EA0A0A07FA0CF94AEA09078760D0F87D
:104440000490C2F3001729EA040907FA03F749EABE
:10445000070747608DE74FEAD30A0AF1080C03F01B
:1044600007074FEA870850F82C900F694FF00F0AA2
:104470000AFA08FA29EA0A0907FA08F849EA0807CD
:1044800040F82C705AE70AB0BDE8F00F70474FF0C3
:10449000000C4CEA08094BF82790D5F800C0E74318
:1044A00007EA0C0C12F4803F18BF4CEA040CC5F864
:1044B00000C0D5F804C012F4003F07EA0C0C18BF86
:1044C0004CEA040CC5F804C0D5F808C012F4801FEB
:1044D00007EA0C0C18BF4CEA040CC5F808C0D5F864
:1044E0000CC0920207EA0C0748BF2743EF6013E7AE
:1044F0004FF0010909FA0CFCCBE74FF0020909FA69
:104500000CFCC6E74FF0030909FA0CFCC1E74FF0B9
:10451000040909FA0CFCBCE74FF0070909FA0CFC86
:10452000B7E74FF0050909FA0CFCB2E74FF00609AE
:1045300009FA0CFCADE74FF0080909FA0CFCA8E7F2
:10454000704700BF08B54FF47053C4F20203032054
:104550001A6842F4007119601A6842F480611960A7
:104560001A6842F480711960FFF7CAF90F2000F051
:1045700093FAFFF7E5FF002008BD00BF40F6BC033B
:10458000C2F200031A68501C1860704740F6BC0362
:10459000C2F20003186870474FF46053C4F202037C
:1045A0009A6802F00C00042813D0082816D04FF4A3
:1045B0001052C0F2F4024FF46053C4F202031949DE
:1045C0009868C0F30313C85C174B22FA00F21A6014
:1045D00070474FF49052C0F27A02ECE7586859687D
:1045E00010F4800F586801F03F0214BF4FF490534D
:1045F0004FF41053C0F388114FF4605014BFC0F251
:104600007A03C0F2F403C4F20200B3FBF2F303FB3B
:1046100001F24168C1F30143581C4100B2FBF1F2C1
:10462000C9E700BFA0D200089C0100204FF46052EF
:10463000C4F2020210B5116C4FF4E04341F0805413
:10464000C4F2000314641A6892B022F4404141F4A9
:10465000004401221C600692B0B907924FF4800317
:1046600008210D930E9104234FF4A8720721022410
:1046700006A810930C940F921191FFF713FA0346BA
:1046800028B1002012B010BD05200790E6E70F22E8
:10469000019201A84FF480522146029403930492A0
:1046A0000593FFF7F1FBD0F1010038BF0020E9E7E7
:1046B0004FF46052C4F202024FF4E043116C30B583
:1046C000C4F2000341F0805010641C6824F440459B
:1046D00093B045F400421A60032110230122002404
:1046E000069109920A930E9304214FF4A8730722AE
:1046F000022506A80F9307940C950D941091119222
:10470000FFF7D0F9034610B1204613B030BD0F2299
:104710002946019201A84FF4805202950393049216
:104720000593FFF7B1FB011B48424841EDE700BF8D
:1047300008B50120FFF77AFF00B108BDFFF776FF4B
:104740000028FAD1FFF7B4FF0028F6D1FEE700BF3A
:1047500038B54FF46D43CEF200034FF46054D3F8F4
:104760008820C4F2020442F47000C3F88800216873
:10477000002041F001052560A060216843F210028D
:1047800021F0847525F48031C2F20042216062601C
:10479000256840F29C1225F48025C2F200022560B3
:1047A0004FF41051E0604FF00060C0F2F4019860E7
:1047B0001160FFF7C7FEFFF7BBFF236A43F0080253
:1047C0002262216A21F00800206238BD2DE9F04103
:1047D0000568C7682A690669044622F4405E4EEA05
:1047E0000701E36980682961EF686269064346EA68
:1047F000020127F4164020F00C0719433943E96001
:104800006E69A06926F4407242EA0001B3F5004FD8
:104810004FF480536961C4F2010341D09D4200F01E
:10482000B7804FF4A057C4F20107BD4200F0B0803A
:10483000FFF79CFC666800EB800202EB8200B1008F
:1048400048F21F56B0FBF1F3C5F2EB16A6FB0327A7
:104850007A091701FFF78AFC616800EB80008B0082
:1048600000EB8002B2FBF3F8FFF780FC616800EB1D
:10487000800000EB80028B00B2FBF3F1A6FB01028B
:104880005309642000FB138C4FEA0C1E0EF1320812
:10489000A6FB0816C6F343163743AF60BDE8F081A8
:1048A0009D423DD04FF4A057C4F20107BD4237D01E
:1048B000FFF75CFC616800EB800202EB82004B00BA
:1048C00048F21F56B0FBF3F7C5F2EB16A6FB070143
:1048D0004A091701FFF74AFC636800EB80005A00A1
:1048E00000EB8001B1FBF2F8FFF740FC636800EBDE
:1048F000800000EB80015A00B1FBF2F3A6FB03102D
:104900006422410902FB118C4FEA0C1808F13208AD
:10491000A6FB0826C6F343163743AF60BDE8F08117
:10492000FFF740FC676800EB8003790003EB83002E
:1049300048F21F56B0FBF1F2C5F2EB16A6FB0217C8
:104940007B091F01FFF72EFC616800EB80004B0024
:1049500000EB8002B2FBF3F8FFF724FC616800EB88
:10496000800000EB80024B00B2FBF3F1A6FB0120BC
:104970004309642202FB138C4FEA0C1808F1320839
:10498000A6FB0836C6F343163743AF60BDE8F08197
:10499000FFF708FC666800EB800707EB8701B200B1
:1049A00048F21F56B1FBF2F3C5F2EB16A6FB03303B
:1049B0004709FFF7F7FB616800EB80028B0002EB11
:1049C0008200B0FBF3F8FFF7EDFB616800EB8002BB
:1049D00002EB82008B00B0FBF3F1A6FB0102500951
:1049E00064233F0103FB108C4EE700BF704700BFFC
:1049F00010B5044628B390F83930FBB12068022284
:104A000084F83920C16821F40053C3602046FFF7C1
:104A1000DDFE2068026922F490410161436923F0C0
:104A20002A024261C168002341F400520121C260A0
:104A300084F83A30184684F8391010BDFFF7D6FFD5
:104A4000DCE7012010BD00BF70B5114C2368DA68A7
:104A5000910715D4D9684A0709D56FF004050D4EA2
:104A60001D615D6A3268A81AB0F57A7F00D270BD08
:104A7000FFF784FD2368356005F57A759D6370BD89
:104A80006FF00200186101F0D1F82368E2E700BF7F
:104A9000B80B0020C008002038B54FF46053C4F2B2
:104AA000020340F6B8341A6C42F008001864196A20
:104AB00041F008051D621A6A22F008001862FFF72B
:104AC0006BFD40F29C13C2F200034DF683611D683A
:104AD000C4F21B31A1FB0512C2F20004900C4FF48A
:104AE000406300254FF0FF32411EC4F20003204610
:104AF000E260236061602561A5606561FEF790FF5B
:104B000044F649213220C0F60001FEF7A1FF4FF420
:104B10006140CEF200004FF48023436029462046D6
:104B2000FEF70CFF04212046FEF708FF2368596AB0
:104B300001F57A729A63D86840F6C002C2F20002A8
:104B400040F00400D8601160284638BD2023C4F22C
:104B50000E2301221A607047704700BF0368D3F824
:104B600028C01B68C1F804C02DE9F001C3F306207A
:104B7000C3F3054403F48008E7B2C6B203F07F052F
:104B80004FEA18480F704E708D7081F80880BAB9DE
:104B90003F0936092D0907EB870204F00F0406EBE5
:104BA000860600F00F0005EB850503F00F0304EB0C
:104BB000420700EB460603EB45050F704E708D7003
:104BC0000020BDE8F001704703685B68F0B4C3F3F0
:104BD0000420C3F30744E6B2C7B203F03F05C3F3B2
:104BE000423CCE704F708D7081F800C0BAB93F0959
:104BF000BA002D093609D71906EB860604F00F0412
:104C000000F00F0005EB850203F00F0304EB4606EE
:104C100000EB470703EB4205CE704F708D7000200C
:104C2000F0BC704738B50368DA68044622F0A0008B
:104C3000D860FFF7ABFC054605E0FFF7A7FC421B79
:104C4000B2F57A7F05D82168CB689B06F5D50020A0
:104C500038BD032038BD00BF38B50368DA68510697
:104C6000044601D5002038BD4FF0FF30D860FFF773
:104C70008DFC05462168CB685A06F3D4FFF786FC05
:104C8000421BB2F57A7FF5D9032038BDF8B504464A
:104C9000002841D0437F002B3BD02168022262775D
:104CA000CA2353224B6220464A62FFF7D5FF23688E
:104CB000002828D1996827696669E56821F4E00C25
:104CC0002CF040029A609A68616842EA010E4EEA4E
:104CD00007073E439E601D611D69A26845EA0241C7
:104CE0001961DD6825F08002DA60196C21F48025F5
:104CF0001D641A6CA56942EA0501FF2219645A6213
:104D000001236377F8BDFF200421586201206177F9
:104D1000F8BDFFF721FFC0E70120F8BD037F012B9D
:104D200070B5044600F09E8001200225207765774B
:104D3000002A2BD04D78CA788B780978280240EA6F
:104D400002451D4345EA413521685323CA224A6280
:104D500020464B62FFF780FF2368002840F08480E4
:104D600025F07F4525F0C0005860D96821F0800209
:104D7000DA609D6815F0200500F084800022FF2095
:104D80000121586210466177227770BD4B7803F09D
:104D90001002D0B200286FD1CA780025092A1AD98A
:104DA0000A3A4CF6CD40D2B2CCF6CC40A0FB025031
:104DB000C0F3C0050120092A0BD925B10A3AD2B2A5
:104DC0000220092A05D9143A02F0FF020230092A0A
:104DD000F9D80501EDB22A431204092B60D90A3B28
:104DE0004CF6CD40DBB2CCF6CC40A0FB0350C0F378
:104DF000C0050120092B0BD925B10A3BDBB20220EB
:104E0000092B05D9143B03F0FF030230092BF9D815
:104E10000501EDB288782B431B02092842D90A38D4
:104E20004CF6CD46C0B2CCF6CC46A6FB00560125CA
:104E30000928C6F3C0060BD926B10A38C0B202252C
:104E4000092805D9143800F0FF0002350928F9D8DF
:104E50002D01EDB2097842EA41321343284343EA77
:104E6000000571E7022070BDFF2004210022586276
:104E700001206177227770BD03F0EF030A33DBB2C4
:104E80004B7089E72046FFF7CDFE236800283FF4EA
:104E900075AFFF225A62042301206377257770BD26
:104EA0000025B7E70025D5E7F8B5037F012B0446B9
:104EB0000D4600F0B380012002212077617726683B
:104EC000002A40F09B80B1682B7811F0400E15BF8E
:104ED00095F808E085F808E04FEA0E4E2668092BA1
:104EE00040F2B6800A3B4CF6CD42DBB2CCF6CC4267
:104EF000A2FB03010127092BC1F3C0000BD920B18C
:104F00000A3BDBB20227092B05D9143B03F0FF0350
:104F10000237092BF9D83A01D7B26A7847EA030178
:104F20000B04092A40F296800A3A4CF6CD40D2B2E0
:104F3000CCF6CC40A0FB02710120092AC1F3C007C6
:104F40000BD927B10A3AD2B20220092A05D9143A5C
:104F500002F0FF020230092AF9D80101CFB2A87885
:104F600017433A02092877D90A384CF6CD47C0B220
:104F7000CCF6CC47A7FB0071C1F3C007012109287B
:104F80000BD927B10A38C0B20221092805D9143833
:104F900000F0FF0002310928F9D80F01F9B243EA05
:104FA0000E031A43084342EA00075323CA217162E1
:104FB00020467362FFF750FE2368002830D107F0C7
:104FC0007F3727F0FE47EA682D691F60986820F454
:104FD00080219960986802432A439A60DD6825F031
:104FE0008001D960986810F0200524D0FF21596213
:104FF00000220123104663772277F8BDB76817F0C7
:10500000400115D12972266868782F78AB780202A2
:1050100042EA0740184340EA0107C6E70220F8BD0C
:10502000FF21596200220423012063772277F8BD13
:105030002A7A1104E8E72046FFF7F4FD23680028E8
:10504000D4D0FF2004225862012062772577F8BD72
:10505000002762E7002782E70021A0E708B50728BC
:1050600012D8DFE800F016222F3C111111044FF482
:105070006053C4F202034FF4E0501A6B42F0800117
:105080001963C4F2020008BD1B4800F097FC002021
:1050900008BD4FF46053C4F2020300201A6B42F0C3
:1050A00001011963C4F2020008BD4FF46053C4F259
:1050B00002034FF480601A6B42F002011963C4F2DC
:1050C000020008BD4FF46053C4F202034FF40060C5
:1050D0001A6B42F004011963C4F2020008BD4FF4D8
:1050E0006053C4F202034FF440601A6B42F00801AF
:1050F0001963C4F2020008BDE4D2000830B5431CB5
:1051000087B005460C461CD0C5F30310FFF7A6FF79
:1051100004F00F020E4B53F8223005F00F01012569
:1051200005FA01F5C4F302120293C4F3C314032376
:1051300001A90195039204930594FFF7A9F807B01C
:1051400030BD04480449592200F04AFCDCE700BFA6
:10515000B0D2000808D300081CD30008421C38B5A0
:1051600004460D4617D0C4F30310FFF777FF04F091
:105170000F014B00022D0BD90025C268032404FA4D
:1051800003F122EA0104C460C3681D43C56038BD51
:1051900005FA03F5F1E7034803497E2200F020FCFD
:1051A000E1E700BF08D300081CD300082DE9F84F41
:1051B0004D4B4C26884606FB003600295BD03068F4
:1051C000DFF828A101274FF4705901F1FF32C3071E
:1051D000C4F2010902EA070B4FD40124351D4445EE
:1051E00049D0BBF1000F1BD030680221014213D01F
:1051F0006B6BD9F81420E86907FA03F313420BD05C
:10520000C9F814306A683AB10069034218BF2146F0
:10521000DAF800301046984701340435444560D030
:10522000316807FA04F20A420CD0686BD9F81420EE
:10523000E96907FA00F3134204D0C9F8143068682A
:10524000002830D10134306807FA04F104350142F6
:105250000BD06B6BD9F81420E96907FA03F31342FA
:1052600003D0C9F81430686828BB013404354445BC
:10527000D6D1BDE8F88FBDE8F88F746BD9F814501B
:10528000F16907FA04F32B42A7D0C9F8143070680B
:105290000028A2D00A69DAF80040134214BF394648
:1052A0000221A04799E70A691342DAF8003015D1C4
:1052B00002219847C6E70A691342DAF8003006D19E
:1052C00002210134984704354445A9D1D1E7012191
:1052D0000134984704354445A2D1CAE701219847D3
:1052E000B0E7BDE8F88F00BFC4080020D80A00204E
:1052F00000200121FFF75ABF01200146FFF756BFEA
:1053000002200121FFF752BF03200121FFF74EBF0A
:1053100004200121FFF74ABF05200146FFF746BFE1
:1053200006200146FFF742BF2DE9F04F90464A1C88
:1053300085B00C460546994600F0888001F00F07BD
:105340007B1EC1F303107FB20E2B55D8DFE803F0AC
:105350005B636C7508080808084B4B4B4B4B4B00C4
:105360003B4A4FF400014FF0000A4FF0050B17269F
:1053700002920191FFF772FE072103902046FFF78A
:10538000BDFE029B30461946FEF762FB4FF46140BA
:10539000019A3049CEF2000051F8271040F82A2037
:1053A0002E704C262C4A06FB0BF64FF0010C93593D
:1053B000C5F804B090190CFA01FB43EA0B0300EBAB
:1053C000810C00202C73A860244C9351039AC4F8DC
:1053D0000080E246CCF80490CCF81C20CCF8347065
:1053E00005B0BDE8F08F1E4A4FF480714FF0010AFE
:1053F0004FF0060B2826BBE74FF0000A194A402160
:10540000D3460626B4E7184A80214FF0000A4FF031
:10541000010B0726ACE7154A4FF480714FF0000AE4
:105420004FF0020B0826A3E7114A4FF400714FF02A
:10543000000A4FF0030B09269AE70E4A4FF48061E9
:105440004FF0000A4FF0040B0A2691E70846C7E721
:105450001953000878D30008C4080020D80A002097
:1054600021530008F1520008F952000801530008C6
:1054700009530008115300082DE9F0410546007B4F
:1054800069684DF2783200F00F04C0F6000240F671
:10549000C4034C2652F82420C2F2000306FB01F696
:1054A00099199F5902F1060C02F10C0E4FF00108F8
:1054B00001EB8C0C01EB8E0E08FA02F801EB820274
:1054C000002427EA080740B221469F515460CCF8D7
:1054D0000440CEF80440FFF711FEAC60BDE8F08157
:1054E0005AB101291AD0022913D18368012B24D083
:1054F000032B22D0816007210CE0012915D002295D
:1055000007D18368012B1CD0032B1AD082600C2199
:1055100000E00C2190F90C00FFF7F0BD8268931EAB
:10552000012B0AD981600621F4E78368991E0129BD
:10553000ECD8022282600721ECE703218160082178
:10554000E8E7012181600621E4E700BFF0B4104BD9
:105550000169426990F9197006688568C468D96064
:105560001A6100217A1C1E605D609C60996109D0FF
:1055700090F91800421C08D00C225A610448F0BC73
:10558000FFF736BA08205861F8E704215961F5E7BA
:10559000F40B0020F8B50E4604463E493046154649
:1055A00000F018FB3C490746284600F013FB014673
:1055B000384600F0FDFA431C206063D04FF480535E
:1055C000C4F20103984248D04FF48841C4F200016C
:1055D000884237D04FF4A052C4F20102904209D160
:1055E0004FF46050C4F202000222436C43F02001E9
:1055F000416462602749304600F0B8FA28462649DF
:1056000000F0B4FA701C03D030460121FFF7A6FD6C
:10561000691C03D028460121FFF7A0FD00204FF4AC
:105620001653E06020616061A360267665762046AF
:10563000FFF78CFF4FF488412268C4F200018A42D0
:1056400016D0F8BD4FF46050C4F202000122036C82
:1056500043F4003101646260CCE74FF46050C4F25F
:1056600002000022436C43F0100141646260C1E714
:105670000A4B0B4821461C2201241C60BDE8F8405F
:1056800001F062BA07480849502200F0A9F92068E1
:1056900094E700BF54D600080CD60008DC0A0020AE
:1056A000300C0020B8D30008D4D300080268136877
:1056B0009806FCD55068024BC1051A60C80D7047AA
:1056C000F40B0020026813681B06FCD5C905024BC9
:1056D000C80D1A6050607047F40B00204FF0FF3087
:1056E000704700BF4FF0FF30704700BF0020704789
:1056F0004FF0FF30704700BF034B10B50446036006
:1057000000F090FD204610BD40D4000810B50446BE
:10571000FFF7F2FF204600F004FE204610BD00BF58
:1057200010B50122044600F0B3FD024B2046236071
:1057300010BD00BF40D4000838B5002202604260AE
:105740000B782F2B044601D0204638BD487800281E
:10575000FAD0481C20604B782F2B12D0A3B18D1C9F
:10576000114600E042B125602A782B46013101350F
:105770002F2AF7D10133236000F09AFD60602046A4
:1057800038BD03461146F5E71946F5E7006870474E
:10579000406808B520B100F0ABFD431E58425841A7
:1057A00008BD00BF10B50446FFF7F2FF00B1606806
:1057B00010BD00BF406808B528B100F099FDD0F1D8
:1057C000010038BF002008BD10B50446FFF7F2FF06
:1057D00010B1606800B1043810BD00BF40680030EF
:1057E00018BF0120704700BF012902D0022903D051
:1057F0007047283000F084BD443000F081BD00BF08
:10580000044A10B5044640F8182BFFF735FE204631
:1058100010BD00BF68D4000810B50446FFF7F0FFC4
:10582000204600F07EFD204610BD00BF144B70B531
:10583000002504460E460360294605718560C56053
:10584000056145610576C561056280F8245000F167
:10585000280000F04FFD294604F1440000F04AFD05
:1058600045F2E9723146C0F60002234604F1180001
:10587000FFF75AFD201D314600F022F9204670BD89
:1058800068D4000890F90430013310B5044607D0FD
:10589000E268A068116801420CBF0020012010BD21
:1058A000024803493F2200F09BF8F1E770D400085A
:1058B00088D40008043000F00FBA00BFFFF7E2BF41
:1058C000014B0360704700BFF0D40008034B10B5D4
:1058D0000446036000F025FD204610BDF0D400080A
:1058E000F0B50446174F44F2402083B0C0F20F00D9
:1058F0000025261D2760E06208274FF0FF30656015
:10590000A560E56025616561A561E56184F82050C9
:1059100084F8215084F8225084F823506762A562ED
:105920000090304600F050FB3046616AA26A2B4678
:1059300000F0E2FB3046E16A00F006FC204603B0CE
:10594000F0BD00BFF0D4000870B5094D2B6883424C
:1059500004460BD0061D416A826A0023304600F0DF
:10596000CBFB3046E16A00F0EFFB2C6070BD00BF5E
:10597000E00A002038B504460D46FFF7E5FF201D7C
:105980002946BDE8384000F03DBC00BF40F6E023AA
:10599000C2F200030022C1621A60FFF7D5BF00BF48
:1059A00010B440F6E023C2F20003826204460022F3
:1059B00041621A6010BCFFF7C7BF00BF0FB400B54B
:1059C00040F2002383B0C2F2000304AA186852F820
:1059D000041BC068019202F075FB012000F018F86A
:1059E00010B540F20023C2F2000382B004461868EA
:1059F0000B464DF20051C0680092C0F600012246ED
:105A000000F0EAFE02B0BDE81040FDF78BBF00BF1A
:105A100038B5074C23680546986800F0C1FD20683A
:105A2000C06800F0BDFD05B9FEE7FDF77BFFFBE7B1
:105A300000020020036810B5044623B900F06AFA9A
:105A400060600120206010BD036810B504460BB9EA
:105A5000184610BD00F05EFA6168401A10BD00BF24
:105A600010B58468FFF7F0FF201810BD08B5FFF7E8
:105A7000F7FF44F6D353C1F2620383FB0021C01742
:105A8000C0EBA11008BD00BF10B50446FFF7DCFF56
:105A9000A36800211818A060216010BD10B504464D
:105AA00000F038FA00236060A36010BD002310B539
:105AB0000446036043608360FFF7F0FF204610BD9B
:105AC00038B50D46044600F0EFF86B1C09D00021F4
:105AD000204600F005F920460021BDE8384000F0DE
