:020000040800F2
:1000000000800120D9060008090700080B07000836
:100010000D0700080F070008110700080000000086
:1000200000000000000000000000000013070008AE
:10003000150700080000000017070008190700084E
:100040001B0700081B0700081B0700081B07000808
:100050001B0700081B0700081B0700081B070008F8
:100060001B0700081B0700081B0700081B070008E8
:100070001B0700081B0700081B0700081B070008D8
:100080001B0700081B0700081B07000800000000F2
:100090000000000000000000000000001B07000836
:1000A0001B0700081B0700081B0700081B070008A8
:1000B0001B0700081B0700081B0700081B07000898
:1000C0001B0700081B0700081B0700081B07000888
:1000D0001B0700081B0700081B07000800000000A2
:1000E0001B0700081B0700081B0700080000000092
:1000F0000000000000000000000000001B070008D6
:10010000000000001B0700081B0700081B07000871
:1001100000000000000000000000000000000000DF
:100120001B0700081B0700081B0700081B07000827
:100130001B07000800000000000000000000000095
:100140000000000000000000000000001B07000885
:100150001B0700081B0700081B0700081B070008F7
:100160001B0700081B07000800000000000000003B
:10017000000000000000000000000000000000007F
:10018000000000001B0700081B07000810B5054C05
:10019000237833B9044B13B10448AFF30080012333
:1001A000237010BD500200200000000040890008AC
:1001B00008B5064B1BB106480649AFF30080064858
:1001C000036813B1054B03B1984708BD0000000058
:1001D00040890008540200204C020020000000006A
:1001E000154B002B08BF134B9D46A3F5803A002109
:1001F0008B460F461348144A121A02F0E9FD0F4BC2
:10020000002B00D098470E4B002B00D098470020C1
:10021000002104000D000D48002802D00C48AFF367
:10022000008002F039FD2000290000F035FA01F0CD
:10023000B7FE00BF000008000080012000000000A1
:1002400000000000500200203C05002000000000DB
:1002500000000000014B0360704700BF10810008E0
:1002600010B5034B0360044602F017FA204610BD98
:100270001081000810B5074B036003F118024C33DE
:100280000446C26503665C3001F0BCFD024B23608E
:10029000204610BD2082000810810008A0F16000F7
:1002A000FFF7E8BFA0F15C00FFF7E4BF10B504461C
:1002B000FFF7E0FF204602F0F0F9204610BDA0F164
:1002C0006000F3E7A0F15C00F0E700007FB50020DC
:1002D0004FF4C0014FF0A06200F0D8FD4FF48073DE
:1002E000019302230293032200230548039301A9EB
:1002F0000492059300F0CAFE07B05DF804FB00BF4E
:100300000000024008B5FFF7E1FF0448044901F08E
:10031000C5FD4FF07E5001F0B5FEFEE7C80200209B
:100320001881000810B5094C09482121202201F04C
:1003300057FC204602210322002301F0C9FC20467D
:100340000449054ABDE8104002F0A2B96C02002041
:10035000E00200207502000894010020036870B5D7
:1003600000211D6901220446A847431C05460ED002
:10037000216802220E6920460021B0472268064605
:1003800013692046294600229847304670BD06462C
:10039000FBE700BF0D4B0E4A30B4026003F58074DA
:1003A000002501E0A3420FD01A4652F8041B8142F7
:1003B000134608BF42F8045C53F8042B8242F1D183
:1003C000A34243F8045CEFD130BC7047EC0200203C
:1003D0004081000838B50F4A0F4B026004460025E3
:1003E00003F5807001E083420FD01A4652F8041BD7
:1003F0008C42134608BF42F8045C53F8042B944225
:10040000F1D1834243F8045CEFD1204602F045F974
:10041000204638BD40810008EC020020044B1868DB
:1004200000B1704703480221032201F025BB00BF41
:10043000F4030020E4040020F0B50F4685B03049F5
:10044000064602F0AAFE0446002836D030462D4962
:1004500002F0A3FE60B330462B4902F09EFE002856
:100460002FD02A48002406E05D680134181D35B1FC
:100470000134402C29D04568031D002DF4D131787A
:100480003A2936D002A8314601F0BEFB02A801F09D
:100490000DFCD0B102A801F0F5FBC8B102A801F033
:1004A000FBFB03468BB11A49E01C41F8243002E003
:1004B000FFF7B4FF012005B0F0BDFFF7AFFF204606
:1004C000F9E7FFF7ABFF0220F5E74FF0FF30F2E767
:1004D00002A801F0CFFB05460028F6D0026802A86A
:1004E000966801F0BBFB3A4601462846B0470346F2
:1004F000D8E73046074901AA02F0E0FD019BD1E7A9
:10050000208100083081000828810008E8020020CE
:10051000EC02002068810008022808B50BDDC21E2D
:10052000074B53F82200002143F8221028B102683B
:100530005368984708BD002008BD4FF0FF3008BD44
:10054000EC0200200228F8B50D46174628DC1D49AC
:100550000A68002A2DD00FB32C46EE1914F8011B9F
:100560001948ED43AB1903F0010501F02DFBB4422E
:1005700014D035B114F8011B134801F025FBB44227
:100580000CD02546104815F8011B01F01DFB6178C1
:100590000D486C1C01F018FBB442F2D13846F8BD8E
:1005A00003380A4B53F8200040B103681B68984792
:1005B000F8BDFFF733FF002FCED1EFE74FF0FF304C
:1005C000F8BD00BFF4030020E4040020EC0200208A
:1005D000022810B50C4609DC0D4A106888B10D4898
:1005E00001F0E6FA01212070084610BD03380A4BDD
:1005F00053F8200040B103689B68984701460846BD
:1006000010BDFFF70BFFEAE74FF0FF31ECE700BF4B
:10061000F4030020E4040020EC020020022808B5C6
:1006200008DD0338064B53F8200028B10168CA687A
:10063000904708BD012008BD4FF0FF3008BD00BF46
:10064000EC020020022808B508DD0338064B53F8F9
:10065000200028B103681B69984708BD002008BD29
:100660004FF0FF3008BD00BFEC020020022808B5A3
:1006700004D84FF400504860002008BD02F022F872
:10068000092303604FF0FF3008BD00BF08B501200B
:1006900001F086FC704700BF08B500F0EFFCFFF7E3
:1006A000F9FFBDE80840FFF72DBE00BF084A1368F8
:1006B0001818EFF30881884202D21060184670477C
:1006C000044B0C221A604FF0FF331846704700BFEE
:1006D00098010020380500200649074A074B9A4236
:1006E000BEBF51F8040B42F8040BF8E704488047FA
:1006F000044800474C890008940100205002002063
:100700004D150008E1010008FEE7FEE7FEE7FEE701
:10071000FEE7FEE7FEE7FEE7FEE7FEE74FF46D4388
:10072000CEF200034FF6FF02D9680A4042F0BF62E2
:1007300042F4003100F0070041EA0022DA6070471D
:1007400008B572B6962001F097FC962001F094FC53
:10075000F8E700BF704700BF036801201A6A00FA7B
:1007600001F122EA01021A62186A0022C4F20102AF
:1007700001439342196205D01A6842F001011960E1
:1007800000207047596C41F400405864F4E700BF02
:100790000023C4F20103984230B402683DD0B0F1A6
:1007A000804F2CD04FF48064C4F20004A04226D0C5
:1007B0004FF40063C4F20003984220D04FF4406429
:1007C000C4F20004A0421AD04FF48043C4F20103E3
:1007D000984218D04FF48844C4F20104A04212D0C9
:1007E0004FF49043C4F2010398420CD08C6809681E
:1007F0000260C46281620122426130BC70474D6870
:1008000022F070022A43CD688C680B6822F4407194
:1008100029430160C4628362EDE74C68CB6822F033
:100820007002144324F44074234303608A68C26254
:100830000B68836209690163DDE700BF10B50446F8
:1008400090B190F8393063B12146022251F8040B7F
:1008500084F83920FFF79CFF012084F8390000203C
:1008600010BDFFF777FFEFE7012010BD4FF46D4398
:10087000CEF20003F0B49F689A68B2F1006F3B4675
:1008800004D0103043F82010F0BC70474FF00054F3
:1008900053F8045B07F5CA7725601A46251D52F800
:1008A000046B66605C68131D6C602C1DBB42F4D148
:1008B0004FF46D42CEF200024FF000539360E0E738
:1008C000F8B503680446D80744D54FF46052C4F223
:1008D0000202916801F00C00042800F03781916851
:1008E00001F00C00082800F02D8143F60203C4F249
:1008F000020300251D7000F047FD4FF460550646C9
:10090000C4F2020506E000F03FFD831BB3F5FA7F59
:1009100000F2F28029688B03F5D443F602062079B1
:10092000C4F202064FF4605530706268012A00F08C
:10093000978100F029FDC4F20205064606E000F0AA
:1009400023FD811BB1F5FA7F00F2D6802B68990355
:10095000F5D423689A073BD54FF46050C4F20200E7
:10096000816811F00C0F00F0CD80826802F00C015C
:10097000082900F0C380E668002E00F00B810025F6
:10098000C4F247250120286000F0FEFC4FF46055BA
:100990000646C4F2020505E000F0F6FC831B642B5A
:1009A00000F2AA802A684FF460539207C4F202034F
:1009B000F2D51968F82090FAA0F2B2FA82F0226912
:1009C000C0B202FA00F221F0F8010A431A6023686B
:1009D000190726D4580741D4A16901B34FF46056D2
:1009E000C4F20206B26802F00C00082800F0BA80D7
:1009F0004FF06005C4F247254FF0000302292B6039
:100A000000F0DE8000F0C0FC3446054604E000F053
:100A1000BBFC421B642A6FD821688B01F7D40020ED
:100A2000F8BD6669002E00F09F804FF46865C4F23F
:100A300047250120286000F0A7FC4FF460550646CA
:100A4000C4F2020504E000F09FFC801B642853D828
:100A50006B6F9A07F7D523685807BDD54FF46056DA
:100A6000C4F202064FF4E045326CC4F2000542F0D5
:100A700080513164286840F480732B6000F084FC5E
:100A8000064604E000F080FC811B642934D82A6803
:100A9000D105F7D543F67005C4F2020500262E7085
:100AA00000F072FC4FF460550646C4F2020505E002
:100AB00000F06AFC831BB3F5167F1DD8296F8A07E7
:100AC000F6D443F67000237AC4F202004FF4605566
:100AD0000370A268012A00F0D48000F055FCC4F233
:100AE00002050646296F88077FF576AF00F04CFCBB
:100AF000801BB0F5167FF5D90320F8BD4068400291
:100B00003FF539AF4FF46052C4F20202106881071A
:100B100002D5E168012925D14FF46052C4F20202E6
:100B2000F825106895FAA5F1B1FA81F52169EDB2C1
:100B300001FA05F120F0F8000143116019077FF573
:100B400049AF6EE7526851027FF5CFAE4FF4605166
:100B5000C4F20201086882037FF5FCAE6268012AD4
:100B60003FF4F8AE0120F8BD4FF46863C4F24723A8
:100B70004FF460551E6000F007FCC4F20205064603
:100B800004E000F001FC811B6429B5D86A6F93076B
:100B9000F7D460E70023C4F247234FF460551E608A
:100BA00000F0F2FBC4F20205064604E000F0ECFBA4
:100BB000811B6429A0D82A689007F7D4236807E727
:100BC00000F0E2FB074604E000F0DEFBC01B6428F7
:100BD00092D830684FF460558101C4F20205F3D415
:100BE00047F6C07E9EFAAEF7B7FA87FE4FF440365E
:100BF00096FAA6F3B3FA83F34FF0706191FAA1F27B
:100C0000B2FA82F2D4F820C0E669A16A676AE06AA3
:100C10004CEA06065FFA8EF44908DBB246F000564D
:100C200007FA04F40139344301FA03F1D2B2602324
:100C300000FA02F02143C4F2472341EA00040122F2
:100C40006C601A6000F0A0FB044605E000F09CFB1D
:100C5000011B64293FF650AF2B689A01F6D5DEE6FA
:100C600000F092FBC4F20205064606E000F08CFBA1
:100C7000821BB2F5FA7F3FF63FAF28688003F5D5B7
:100C800067E600F081FBC4F2020506462B6F9B0766
:100C90003FF5A2AE00F078FB821BB2F5167FF5D9C6
:100CA0002AE700BF4FF47053C4F202032DE9F0416C
:100CB0001A680C4602F00F01A142054609D2E2B2C1
:100CC0001A70196801F00F03A34269D00120BDE832
:100CD000F0810368980709D54FF46052C4F202020C
:100CE000A968906820F0F00001439160D9072CD5E5
:100CF0006B684FF46052C4F20202012B106800F0DE
:100D00009F80022B00F0A0808107DFD54FF4605751
:100D1000C4F2020741F28838BE6826F003010B4393
:100D2000BB6000F031FB6A68012A064672D0022AD5
:100D30007BD0B86810F00C0F07D000F025FB811BAA
:100D40004145F6D90320BDE8F0814FF47050C4F25C
:100D50000200E2B20270016801F00F03A342B5D1B4
:100D60002B685A0709D54FF46052C4F20202E968B1
:100D7000906820F4E050014391601B070AD54FF4BE
:100D80006053C4F2020328699A6822F4604141EA80
:100D9000C00098600F2000F07DFD0020BDE8F081CC
:100DA0000368990709D54FF46052C4F202028168C2
:100DB000906820F0F00001439160DA07D1D56B68AC
:100DC0004FF46052C4F20202012B10685AD0022B79
:100DD00055D082077FF57AAF4FF46056C4F2020611
:100DE000B46824F0030747EA0301B16000F0CCFACD
:100DF0006B68012B044641F2883729D0022B32D090
:100E0000B26812F00C0FABD000F0BEFA001BB84273
:100E1000F6D997E7B96801F00C03042B95D000F0E0
:100E2000B3FA801B4045F5D98CE7BB6803F00C0290
:100E3000082A8AD000F0A8FA801B4045F5D981E73E
:100E400082033FF563AF41E780013FF55FAF3DE7C8
:100E5000B06800F00C01042982D000F095FA031B61
:100E6000BB42F5D96EE7B16801F00C03082B3FF4E3
:100E700077AF00F089FA021BBA42F4D962E7810128
:100E8000AAD423E78003A7D420E700BF70B54FF4AE
:100E9000605486B003460D461646C4F20204E8B11B
:100EA000216B41F0040222634FF4007201924FF46F
:100EB000006002220023C4F2020001A90292032270
:100EC00004920393059300F0E1F8A06820F07841C4
:100ED0000D4345EAC606A66006B070BD226B42F01F
:100EE00001014FF480722163002001920222C4F2BA
:100EF0000200029201A9032203930593049200F0D9
:100F0000C5F8A36823F0EC6005432E43A660E3E731
:100F10004FF46053C4F2020310B49A6802F00C005C
:100F2000042807D008280AD04FF41050C0F2F4006B
:100F300010BC70474FF49050C0F27A00F8E75C683C
:100F4000596804F03F044FF4800292FAA2F0B0FA1C
:100F500080F201F48001D0B231FA00F2596847F60C
:100F6000C07393FAA3F2B2FA82F047F6C07320D1AD
:100F70004FF410520B40C0F2F402C1B223FA01F355
:100F8000B2FBF4F000FB03F14FF46053C4F2020330
:100F90004FF440305A6890FAA0F3B3FA83F002F4A9
:100FA0004032C3B222FA03F0421C5300B1FBF3F00B
:100FB000BEE74FF490520B40C0B2C0F27A0223FA5F
:100FC00000F3B2FBF4F101FB03F1DDE708B5FFF735
:100FD0009FFF4FF46053C4F20203F0219B6891FA23
:100FE000A1F2B2FA82F148F2781203F0F003C9B22A
:100FF00023FA01F1C0F6000240F29C13525CC2F2E7
:10100000000320FA02F0186008BD00BF08B5FFF722
:10101000DDFF4FF46053C4F202034FF4E0529968CD
:1010200092FAA2F3B3FA83F248F27813D2B201F43F
:10103000E05121FA02F1C0F600035B5C20FA03F0F4
:1010400008BD00BF08B5FFF7C1FF4FF46053C4F2FD
:1010500002034FF46042996892FAA2F3B3FA83F262
:1010600048F27813D2B201F4604121FA02F1C0F6DD
:1010700000035B5C20FA03F008BD00BF08B500F078
:1010800089F9BDE8084000F05BB900BF2DE9F00F19
:1010900000238AB09946C4F20209CDF804904FF4B7
:1010A00000674FF440684FF48059C4F20207C4F25D
:1010B0000208C4F202094FF4605C4FF480620397A7
:1010C000CDF81080CDF814904FF4A0544FF4C057D1
:1010D0004FF4E0584FF40059E3464FF47055C4F212
:1010E000020CC4F20202C4F20204C4F20207C4F207
:1010F0000208C4F202090E680292C4F2010BC4F2A3
:10110000010506940797CDF82080CDF82490CDF8FE
:1011100000C003E00133102B00F0B380012202FA7B
:1011200003F202EA06049442F4D14A68022A00F06B
:101130009080122A00F08D804FEA430C4FF0030894
:10114000D0F8009008FA0CF76FEA070802F00307DE
:1011500007FA0CF708EA090949EA0709571E012F9F
:10116000C0F800905FD9112A5DD0122A5BD08F6839
:10117000D0F80C9007FA0CFC08EA090848EA0C07BA
:1011800012F0805FC760C5D0DDF80080D8F84490C9
:101190009F0849F4804C0237C8F844C003F00308A4
:1011A0005BF827904FEA880C4FF00F0808FA0CF80C
:1011B00029EA0808DDF80490484566D0DDF8089073
:1011C000484500F09380DDF80C90484500F093808E
:1011D000DDF81090484500F09380DDF81490484504
:1011E00000F09380DDF81890484500F09880DDF815
:1011F0001C90484500F09880DDF82090484500F0AC
:101200008980DDF82490484500F093804FF4105910
:10121000C4F2020948450CBF4FF009094FF00A0912
:1012200009FA0CFC33E0D0F808A0CF6808EA0A0AF3
:1012300007FA0CF94AEA09078760D0F80490C2F36C
:10124000001729EA040907FA03F749EA0707476084
:101250008DE74FEAD30A0AF1080C03F007074FEABB
:10126000870850F82C900F694FF00F0A0AFA08FA15
:1012700029EA0A0907FA08F849EA080740F82C7031
:101280005AE70AB0BDE8F00F70474FF0000C4CEA87
:1012900008094BF82790D5F800C0E74307EA0C0C83
:1012A00012F4803F18BF4CEA040CC5F800C0D5F812
:1012B00004C012F4003F07EA0C0C18BF4CEA040CFF
:1012C000C5F804C0D5F808C012F4801F07EA0C0C5A
:1012D00018BF4CEA040CC5F808C0D5F80CC092023F
:1012E00007EA0C0748BF2743EF6013E74FF00109F7
:1012F00009FA0CFCCBE74FF0020909FA0CFCC6E72F
:101300004FF0030909FA0CFCC1E74FF0040909FA90
:101310000CFCBCE74FF0070909FA0CFCB7E74FF0EB
:10132000050909FA0CFCB2E74FF0060909FA0CFCB2
:10133000ADE74FF0080909FA0CFCA8E7704700BFB9
:1013400008B54FF47053C4F2020303201A6842F444
:10135000007119601A6842F4806119601A6842F4D9
:1013600080711960FFF7DAF90F2000F093FAFFF7A8
:10137000E5FF002008BD00BF40F2EC33C2F20003DD
:101380001A68501C1860704740F2EC33C2F2000338
:10139000186870474FF46053C4F202039A6802F071
:1013A0000C00042813D0082816D04FF41052C0F2B5
:1013B000F4024FF46053C4F2020319499868C0F371
:1013C0000313C85C174B22FA00F21A6070474FF4FF
:1013D0009052C0F27A02ECE75868596810F4800F16
:1013E000586801F03F0214BF4FF490534FF410536C
:1013F000C0F388114FF4605014BFC0F27A03C0F2FA
:10140000F403C4F20200B3FBF2F303FB01F2416800
:10141000C1F30143581C4100B2FBF1F2C9E700BF20
:10142000888100089C0100204FF46052C4F202023F
:1014300010B5116C4FF4E04341F08054C4F2000346
:1014400014641A6892B022F4404141F4004401222D
:101450001C600692B0B907924FF4800308210D93E7
:101460000E9104234FF4A8720721022406A81093BA
:101470000C940F921191FFF723FA034628B1002034
:1014800012B010BD05200790E6E70F22019201A8D7
:101490004FF4805221460294039304920593FFF780
:1014A00001FCD0F1010038BF0020E9E74FF46052A1
:1014B000C4F202024FF4E043116C30B5C4F20003F1
:1014C00041F0805010641C6824F4404593B045F40A
:1014D00000421A6003211023012200240691099280
:1014E0000A930E9304214FF4A8730722022506A83D
:1014F0000F9307940C950D9410911192FFF7E0F95A
:10150000034610B1204613B030BD0F222946019288
:1015100001A84FF480520295039304920593FFF7BC
:10152000C1FB011B48424841EDE700BF08B501205F
:10153000FFF77AFF00B108BDFFF776FF0028FAD168
:10154000FFF7B4FF0028F6D1FEE700BF38B54FF42F
:101550006D43CEF200034FF46054D3F88820C4F2F8
:10156000020442F47000C3F888002168002041F0B2
:1015700001052560A060216843F2100221F0847506
:1015800025F48031C2F2004221606260256840F299
:101590009C1225F48025C2F2000225604FF4105100
:1015A000E0604FF00060C0F2F40198601160FFF756
:1015B000C7FEFFF7BBFF236A43F008022262216ADD
:1015C00021F00800206238BD2DE9F0410568C768A8
:1015D0002A690669044622F4405E4EEA0701E3697F
:1015E00080682961EF686269064346EA020127F4D0
:1015F000164020F00C0719433943E9606E69A06971
:1016000026F4407242EA0001B3F5004F4FF48053D4
:101610006961C4F2010341D09D4200F0B7804FF4EC
:10162000A057C4F20107BD4200F0B080FFF7EEFC06
:10163000666800EB800202EB8200B10048F21F56A0
:10164000B0FBF1F3C5F2EB16A6FB03277A091701ED
:10165000FFF7DCFC616800EB80008B0000EB800290
:10166000B2FBF3F8FFF7D2FC616800EB800000EBFF
:1016700080028B00B2FBF3F1A6FB01025309642048
:1016800000FB138C4FEA0C1E0EF13208A6FB081665
:10169000C6F343163743AF60BDE8F0819D423DD0AD
:1016A0004FF4A057C4F20107BD4237D0FFF7AEFC9C
:1016B000616800EB800202EB82004B0048F21F568B
:1016C000B0FBF3F7C5F2EB16A6FB07014A091701B9
:1016D000FFF79CFC636800EB80005A0000EB800180
:1016E000B1FBF2F8FFF792FC636800EB800000EBBF
:1016F00080015A00B1FBF2F3A6FB031064224109FA
:1017000002FB118C4FEA0C1808F13208A6FB0826E0
:10171000C6F343163743AF60BDE8F081FFF792FC94
:10172000676800EB8003790003EB830048F21F56E3
:10173000B0FBF1F2C5F2EB16A6FB02177B091F0105
:10174000FFF780FC616800EB80004B0000EB80023B
:10175000B2FBF3F8FFF776FC616800EB800000EB6A
:1017600080024B00B2FBF3F1A6FB01204309642287
:1017700002FB138C4FEA0C1808F13208A6FB08365E
:10178000C6F343163743AF60BDE8F081FFF75AFC5C
:10179000666800EB800707EB8701B20048F21F562E
:1017A000B1FBF2F3C5F2EB16A6FB03304709FFF7D6
:1017B00049FC616800EB80028B0002EB8200B0FB09
:1017C000F3F8FFF73FFC616800EB800202EB820058
:1017D0008B00B0FBF3F1A6FB0102500964233F012B
:1017E00003FB108C4EE700BF704700BF10B50446E6
:1017F00028B390F83930FBB12068022284F83920F0
:10180000C16821F40053C3602046FFF7DDFE206865
:10181000026922F490410161436923F02A02426186
:10182000C168002341F400520121C26084F83A30BB
:10183000184684F8391010BDFFF7D6FFDCE7012009
:1018400010BD00BF70B5114C2368DA68910715D43C
:10185000D9684A0709D56FF004050D4E1D615D6A10
:101860003268A81AB0F57A7F00D270BDFFF784FD08
:101870002368356005F57A759D6370BD6FF00200D1
:10188000186100F00DFC2368E2E700BF6C04002043
:10189000F003002038B54FF46053C4F2020340F265
:1018A0006C441A6C42F008001864196A41F008058B
:1018B0001D621A6A22F008001862FFF76BFD40F201
:1018C0009C13C2F200034DF683611D68C4F21B3104
:1018D000A1FB0512C2F20004900C4FF440630025F6
:1018E0004FF0FF32411EC4F200032046E260236045
:1018F00061602561A5606561FEF7A0FF41F64501C5
:101900003220C0F60001FEF7B1FF4FF46140CEF285
:1019100000004FF48023436029462046FEF71CFF59
:1019200004212046FEF718FF2368596A01F57A72F0
:101930009A63D86840F2F032C2F2000240F004002C
:10194000D8601160284638BD704700BFF8B504461E
:1019500000286BD090F83530002B54D0022220683C
:1019600084F83520016821F001050560FFF74EFB82
:101970004DF68366C4F21B36A6FB002748F2A0652D
:1019800062682368C0F20105B90CAA42596022D8E6
:101990005700B0FBF7F216050131350D1962032D22
:1019A00098BF0422E7682669A5696169E069DA6180
:1019B000226A294302433E431A609E60D960186838
:1019C00040F0010119600022012384F836201046FE
:1019D00084F83530F8BD4FF4967644F6D35706FBBD
:1019E00001F1C1F26207A7FB0165A909A7684E1CB6
:1019F0001E625FB902EB4206B0FBF6F21505280D38
:101A000088B90122CEE7FFF79FFFA7E702EB82022A
:101A100002EB8205B0FBF5F001050F0D002FF0D0B1
:101A200040F44042BEE742F40042BBE70120F8BD6B
:101A3000F0B4104B0169426990F919700668856825
:101A4000C468D9601A6100217A1C1E605D609C60C8
:101A5000996109D090F91800421C08D00C225A61F3
:101A60000448F0BCFFF7C2BE08205861F8E7042123
:101A70005961F5E7A8040020F8B50E4604463E4932
:101A80003046154600F0D2FA3C490746284600F099
:101A9000CDFA0146384600F0B7FA431C206063D007
:101AA0004FF48053C4F20103984248D04FF4884168
:101AB000C4F20001884237D04FF4A052C4F20102B0
:101AC000904209D14FF46050C4F202000222436CEC
:101AD00043F02001416462602749304600F072FA09
:101AE0002846264900F06EFA701C03D030460121CA
:101AF00000F07CFB691C03D02846012100F076FB36
:101B000000204FF41653E06020616061A3602676E8
:101B100065762046FFF78CFF4FF488412268C4F2B7
:101B200000018A4216D0F8BD4FF46050C4F20200A2
:101B30000122036C43F4003101646260CCE74FF48E
:101B40006050C4F202000022436C43F01001416473
:101B50006260C1E70A4B0B4821461C2201241C602D
:101B6000BDE8F84001F02BB907480849502200F0C1
:101B7000FFF9206894E700BF0C8400088883000800
:101B8000F4030020E404002098810008B4810008D8
:101B900010B440F2044340F2F834C2F2000440684A
:101BA000C2F2000344F82020196010BC704700BF47
:101BB000026813689806FCD55068024BC1051A608C
:101BC000C80D7047A8040020026813681B06FCD5E6
:101BD000C905024BC80D1A6050607047A804002068
:101BE00038B548F2A0630025C0F2010305604560E6
:101BF0008360044600F0AEFB40F20841C2F20001EF
:101C000020460C6038BD00BF38B50022026042603B
:101C10000B782F2B044601D0204638BD4878002889
:101C2000FAD0481C20604B782F2B12D0A3B18D1C0A
:101C3000114600E042B125602A782B46013101357A
:101C40002F2AF7D10133236000F0EEFC60602046BC
:101C500038BD03461146F5E71946F5E700687047B9
:101C6000406808B520B100F0FFFC431E58425841BF
:101C700008BD00BF10B50446FFF7F2FF00B1606871
:101C800010BD00BF406808B528B100F0EDFCD0F1F0
:101C9000010038BF002008BD10B50446FFF7F2FF71
:101CA00010B1606800B1043810BD00BF406800305A
:101CB00018BF0120704700BF00F040B9A0F15C00E0
:101CC000FFF7FABF00F036B9A0F15C00FFF7FABFEA
:101CD00038B504461D4600F0FFF8294604F15C00C3
:101CE00000F0B6F848F21823C0F6000303F108012B
:101CF00003F1200254332160E2652366204638BD9B
:101D0000002070472DE9F0418E18B1420F4605467C
:101D100030D003680C46BA1BD24314F8011B5B6A2F
:101D200002F00108984701301ED0A6421FD0B8F13A
:101D3000000F09D0286814F8011B436A2846984709
:101D4000013011D0A64212D02A6814F8011B536A40
:101D5000284698470130284606D02A6814F8011B07
:101D6000536A98470130EDD1E01BBDE8F081F01BCC
:101D7000BDE8F0810020BDE8F08100BF2DE9F04111
:101D80008E18B1420F46054631D003688A1BD143F5
:101D90009C6A01F00108A047431C3C4624D03C4605
:101DA00004F8010BA6421CD0B8F1000F06D02B6836
:101DB00028469A6A9047431C0FD115E029682846A7
:101DC0008B6A98470246511C28460DD004F8012B17
:101DD00029688B6A9847421C06D004F8010BA6427A
:101DE000ECD1F01BBDE8F081E01BBDE8F0810020E4
:101DF000BDE8F08100207047002070470020704748
:101E00000020704748F27823C0F6000303F108026F
:101E10003C3310B5044680E80C00406900F0AAFC91
:101E2000204600F07FFB204610BD00BFA0F104005B
:101E3000FFF7E8BF10B50446FFF7E4FF204600F0C7
:101E40002CFC204610BD00BFA0F10400FFF7F2BF3C
:101E500030B585B0044600F08BFB48F27823C0F61D
:101E6000000303F1080000253C3348F2681184E8C0
:101E700009002246C0F60001656101A801F0FAF8E8
:101E800048F2C021C0F6000101A800F03BFE29463F
:101E9000606101F05FF8204605B030BD0EB430B58A
:101EA00082B005AB044653F8045B4069019300F02F
:101EB00017FD6069019A294601F0F2FD02B0BDE804
:101EC000304003B0704700BFC1EBC10100EB81009F
:101ED000203000F0D1BB00BFF8B5154B00250446FB
:101EE00003600E46456029468560C5600561456111
:101EF00085610577457700F12000174600F0B6FBB5
:101F0000294604F13C0000F0B1FB251D4FF41653A7
:101F1000284631463A46A365FFF7AEFD41F6C96152
:101F20002846C0F600012246FFF732FE2046F8BDE3
:101F3000108100080430FFF73BBE00BF10B504302D
:101F40000C46FFF741FE204610BD00BF0FB400B5A0
:101F500040F2002383B0C2F2000304AA186852F8CA
:101F6000041BC068019201F09BFD012000F018F8ED
:101F700010B540F20023C2F2000382B00446186894
:101F80000B4648F2C421C0680092C0F60001224608
:101F900000F0C2FD02B0BDE81040FEF7D1BB00BFAB
:101FA00038B5074C23680546986800F099FC20680E
:101FB000C06800F095FC05B9FEE7FEF7C1FBFBE742
:101FC00000020020431C10B5044619D091F90030DE
:101FD000581C04D10FE011F90C3F5A1C0BD09C4245
:101FE000F9D12046896800F0D1F820460021BDE8EB
:101FF000104000F0FBB80348BDE81040FFF7A6BF53
:1020000010BD00BFF8820008884208B50AD0421C03
:1020100007D0013106D00448FFF798FF4FF0FF309A
:1020200008BD084608BD00BF0C83000808B5431C66
:102030000DD091F900305A1C04D109E011F90C3F80
:102040005A1C05D09842F9D14868411C00D008BDFF
:102050000248FFF77BFF4FF0FF30F8E720830008CE
:1020600038B5054600F030FA044600F02DFA001BA2
:10207000A842FAD338BD00BF4FF47A7303FB00F0D7
:10208000FFF7EEBF07EE100ADFED047A27EE270A0E
:10209000FDEEC00A10EE900AFFF7E2BF002474497B
:1020A00070B500F035FA0F4C0F4E206870B105681E
:1020B00000F00AFA281A00280CDC21683268C86887
:1020C0002060002AF2D088689047EEE7BDE87040B3
:1020D00000F014BA2368D3E90001BDE8704000F0B5
:1020E00001BA00BF0C0400201004002008B5072826
:1020F00012D8DFE800F016222F3C111111044FF422
:102100006053C4F202034FF4E0501A6B42F08001B6
:102110001963C4F2020008BD1B48FFF717FF002037
:1021200008BD4FF46053C4F2020300201A6B42F062
:1021300001011963C4F2020008BD4FF46053C4F2F8
:1021400002034FF480601A6B42F002011963C4F27B
:10215000020008BD4FF46053C4F202034FF4006064
:102160001A6B42F004011963C4F2020008BD4FF477
:102170006053C4F202034FF440601A6B42F008014E
:102180001963C4F2020008BD8884000830B5431CFE
:1021900087B005460C461CD0C5F30310FFF7A6FF19
:1021A00004F00F020E4B53F8223005F00F01012509
:1021B00005FA01F5C4F302120293C4F3C314032316
:1021C00001A90195039204930594FEF75FFF07B000
:1021D00030BD044804495922FFF7CAFEDCE700BFBE
:1021E00054840008AC840008C0840008421C38B540
:1021F00004460D4617D0C4F30310FFF777FF04F031
:102200000F014B00022D0BD90025C268032404FAEC
:1022100003F122EA0104C460C3681D43C56038BDF0
:1022200005FA03F5F1E7034803497E22FFF7A0FE14
:10223000E1E700BFAC840008C0840008F8B50F4691
:10224000064600292DD04FF4D453C0F2060399421C
:1022500027DC3368164D48F201022B6007E09869CD
:10226000800707D59969890704D5033A02D09C698C
:10227000A407F4D40E4C6F6000234FF48041204635
:1022800029616B61AB60EB612B62EB60AB61FFF7C7
:102290005DFB706820B123681A6842F480611960A0
:1022A000F8BD044804496722FFF762FED1E700BF8A
:1022B000000500201C85000838850008244B48F2E2
:1022C00001021B6807E09969890707D599698907A1
:1022D00004D5033A02D099698907F4D44FF4A84190
:1022E0000068C4F20001884225D04FF4B043C4F224
:1022F0000003984212D04FF4B842C4F20002904258
:102300000BD14FF46051C4F20201086A40F400039B
:102310000B620A6A22F40000086270474FF46051B1
:10232000C4F202010B6A43F480020A62086A20F4D4
:1023300080030B6270474FF46051C4F202010A6AD5
:1023400042F4001008620B6A23F400120A6270471C
:1023500000050020F8B50F4604464B49384616469E
:10236000FFF764FE494905463046FFF75FFE014628
:102370002846FFF749FE451C20607ED001464FF4F9
:10238000A845C4F20005A9423CD04FF4B042C4F2C3
:102390000002914216D04FF4B842C4F200029142BA
:1023A00003D13B4B186800284CD02046FFF786FF2E
:1023B00048F2A0612046C0F20101FFF73FFF002272
:1023C0006260F8BD334B19680029EED14FF46052BA
:1023D000C4F202020120116C186041F480031364FE
:1023E00029493846FFF7EEFD30462849FFF7EAFD58
:1023F00038460321FFF7FAFE03213046FFF7F6FEC9
:102400002168C8E7244B1A68002ACED14FF46052E5
:10241000C4F202020120116C186041F4001313642D
:1024200019493846FFF7CEFD30461849FFF7CAFD77
:1024300038460321FFF7DAFE03213046FFF7D6FEC8
:102440002168A2E74FF46052C4F202020120116C2D
:10245000186041F40003136438460B49FFF7B2FDDE
:1024600030460A49FFF7AEFD38460321FFF7BEFEAE
:1024700030460321FFF7BAFE97E7084908483A2299
:10248000FFF776FD21687AE740830008D0830008D3
:10249000180400201C0400201404002038850008C3
:1024A00098850008064B186800B170470121196033
:1024B0004FF44062034BC4F200021A60FFF7EAB91E
:1024C0005C0400202004002008B5054B186808B9FA
:1024D000FFF7E8FF4FF44061C4F20001486A08BD0D
:1024E0005C04002040F22043C2F2000319684863F4
:1024F000CA6842F00200C860704700BF40F2204343
:10250000C2F200031868C26822F00201C16070477D
:1025100040F22043C2F200036FF002021868026129
:10252000704700BF48F2B05310B5C0F60003044630
:1025300003F13402083340F8042F236000F02EF832
:102540002046FDF727FF204610BD00BFA0F1040084
:10255000FFF7E8BF10B50446FFF7E4FF204600F0A0
:102560009CF8204610BD00BFA0F10400FFF7F2BFA9
:10257000094B10B50022044640F8043B00F044F833
:1025800048F2B053C0F6000303F10802343384E884
:102590000C00204610BD00BF40810008094A836836
:1025A000026053B108490A68824201D106E01A4626
:1025B00053689842FBD141685160704743680B6093
:1025C000704700BFF8850008600400200C4A83684B
:1025D00010B50446026053B10A480268944201D122
:1025E0000AE00A4651688C42FBD16368536020467A
:1025F00000F053F8204610BD61680160F7E700BFA6
:10260000F885000860040020054B02730022036077
:102610004260816019B103490B68086043607047EC
:10262000F8850008600400200E4B70B51C68064653
:102630000D4614B912E0646884B1A36831462A4695
:102640001846002BF7D000F0BAFD0028F3D1A0689F
:1026500000F0ADFDA842EED1204670BD002420461A
:1026600070BD00BF60040020007B70470022426004
:1026700082610160704700BF08B5036801460BB175
:10268000984708BD406810B18A690831904708BD75
:1026900003460846194600F005B808B100F078BBBB
:1026A0007047000070B5064C06460D4613462CB127
:1026B00031462A460220AFF3008070BD204670BD2F
:1026C00000000000014B1868704700BF00020020A6
:1026D00070B505460C4609B9002070BD18B1836974
:1026E0000BB900F063F9204B9C4201D16C6808E003
:1026F0001E4B9C4201D1AC6803E01D4B9C4208BFBD
:10270000EC68B4F90C30002BE6D02846214600F0E6
:10271000BDF8236B064633B12846216A9847002846
:10272000B8BF4FF0FF36A3891B0603D528462169A1
:1027300000F056FB616B41B104F14403994202D0B1
:10274000284600F04DFB00236363A16C21B12846AD
:1027500000F046FB0023A36400F092F90023A3815C
:1027600000F08FF9304670BD008600082086000812
:1027700040860008024B01461868FFF7A9BF00BF5A
:10278000000200208A892DE9F041054610070C4619
:1027900057D44B68002B02DC0B6C002B18DDE66A6B
:1027A000B6B102F48052002392B22F682B600AB1B6
:1027B000626D10E0216A28460123B047411C0246A1
:1027C00009D12B683BB11D2B01D0162B46D12F60B0
:1027D0000020BDE8F081A3895B0705D56368D21AA4
:1027E000636B0BB1236CD21AE66A216A2846002378
:1027F000B047461CA28905D12B681BB11D2B01D007
:10280000162B19D100236360D1042369236004D5FA
:10281000421C01D12B6803B96065616B2F600029F0
:10282000D6D004F14403994202D0284600F0D8FAE9
:1028300000206063BDE8F08142F04002A281BDE863
:10284000F0810E69002EC3D00B680E60C6EB030842
:1028500093070CBF4B6900238B6012E0A38943F000
:102860004003A3814FF0FF30BDE8F081A76A216AE1
:10287000284632464346B8470028EFDD0644C0EB01
:102880000808B8F1000FF1DCA2E7000038B50B69C9
:1028900005460C46DBB118B183690BB900F086F828
:1028A0000C4B9C4201D16C6808E00B4B9C4201D15F
:1028B000AC6803E0094B9C4208BFEC68B4F90C30EB
:1028C0002BB128462146BDE83840FFF75BBF00200A
:1028D00038BD00BF0086000820860008408600083A
:1028E000014620B9044B0549186800F0B7B9044BFC
:1028F0001868FFF7CBBF00BF648600088D2800086A
:1029000000020020F8B5074600F1480494B1A5681C
:102910006668013E0CD4AB89012B07D9B5F90E309E
:10292000013303D038462946FFF7B0FF6835F0E79A
:102930002468EBE7F8BD0000002310B504460360EF
:102940004360836081814366C28103614361836127
:1029500019465C30082200F03BFA054B6362054BD8
:10296000A362054BE362054B2462236310BD00BFE5
:1029700011310008373100086F3100089331000829
:1029800070B54B1E68255D430E4605F1740100F0DD
:102990006BFA044640B1002180E842000C30A06090
:1029A00005F1680200F014FA204670BD836910B585
:1029B000044633BB8364C3640365124B124A1B682D
:1029C0008262984204BF0123836100F01FF86060B7
:1029D000204600F01BF8A060204600F017F8042104
:1029E000E06000226068FFF7A7FFA06809210122CC
:1029F000FFF7A2FFE06812210222FFF79DFF0123EB
:102A0000A36110BD6486000805290008F8B51B4BBA
:102A10001E68B369074613B93046FFF7C7FF48364B
:102A2000B4687368013B04D4B4F90C5075B16834D0
:102A3000F8E733682BB938460421FFF7A1FF30606F
:102A400008B13668ECE70C233B60F8BD4FF6FF7326
:102A5000E3810123A38165662560A560656025612A
:102A60006561A56104F15C002946082200F0B0F917
:102A70006563A563A564E5642046F8BD6486000827
:102A800070477047F7B50F46114601AA054602F098
:102A9000ABFE064608B9002029E02846FFF7B6FF3E
:102AA00004460028F7D028463946019A4FF4DB73D4
:102AB00000F02EFA002806DA0025FFF7E1FFA581D5
:102AC000FFF7DFFFE7E70B4B63620B4BA3620B4B98
:102AD000E3620B4B2363F305E081A681246205D5F5
:102AE000284621460022022300F028F8204603B0A1
:102AF000F0BD00BF11310008373100086F31000808
:102B0000933100080A460349034608681946FFF74F
:102B1000B9BF00BF000200200EB403B5014603ABED
:102B2000054853F8042B0068019300F0B5FE02B08D
:102B30005DF804EB03B070470002002000F000B81D
:102B40002DE9F8430C4691461E46054618B18369A7
:102B50000BB9FFF72BFF3E4B9C4201D16C6808E09C
:102B60003C4B9C4201D1AC6803E03B4B9C4208BF0C
:102B7000EC68A38903F48473B3F5847F03D12846FA
:102B80002146FFF783FED4F82C801D23B8F1000FF7
:102B90002BD0012E04D0022E2BD056B3162324E0C6
:102BA00028462146FFF772FEA28902F4805292B2B3
:102BB0000AB1606D05E0216A28463346C047411CD2
:102BC00014D0A3895A0706D56368C01A636B4BB14A
:102BD000236CC01A06E01B0704D5236813B12269D1
:102BE0009B1A18448144002603E02B604FF0FF3706
:102BF0002BE023691BB92846214600F073F82846CC
:102C00002146FFF743FE07460028EFD12846216AF8
:102C10004A463346C0470130E8D0616B41B104F108
:102C20004403994202D0284600F0DAF80023636397
:102C300023692360A389002123F402636160A381D7
:102C400004F15C00082200F0C3F83846BDE8F883C0
:102C50000086000820860008408600082DE9F84319
:102C60008046894600F14804002694B1A56867684B
:102C7000013F0CD4AB89012B07D9B5F90E300133D4
:102C800003D040462946C84706436835F0E7246824
:102C9000EBE73046BDE8F88370B50E4B0E4DED1AEC
:102CA000AD1000241E46AC4204D056F824209047B4
:102CB0000134F8E705F01AFA084D094BED1AAD108A
:102CC00000241E46AC4204D056F82420904701341C
:102CD000F8E770BD400200204002002048020020BA
:102CE00040020020F0B58B899E0791B005460C4646
:102CF00026D4B1F90E10002909DAA38913F0800F48
:102D00004FF0000714BF40264FF480660DE001AA83
:102D100002F0A2FD0028F0DB029F07F47047B7F530
:102D200000514F424F414FF480662846314600F033
:102D30009BF860B9A3899A051DD443F00203A381CF
:102D400004F14703236023610123636113E00B4B0C
:102D5000AB62A389206043F08003A3812061666198
:102D60004FB12846B4F90E1002F088FD18B1A389BE
:102D700043F00103A38111B0F0BD00BF0529000895
:102D8000024B0146186800F06FB800BF0002002037
:102D9000024B0146186800F023B800BF0002002073
:102DA00010B5C9B202449042034606D01C788C424A
:102DB00000F10100F7D1184610BD002010BD10B57C
:102DC0000023934203D0CC5CC4540133F9E710BD17
:102DD00002440346934202D003F8011BFAE770470E
:102DE00030B500293CD051F8042C0B1F1D49002A96
:102DF000B8BF9B180A680C4612B95A600B6030BD08
:102E000093420DD219685818904203D15A58114470
:102E1000426819605A60236030BD994203D80A465F
:102E200051680029F9D1146815199D420AD11B680F
:102E30002344D0188842136012D1086803441360F9
:102E40004B680CE002D90C23036030BD18681C18D5
:102E50008C4203D10C684968204418605960536063
:102E600030BD00BF6804002070B5CD1C25F00305FF
:102E700008350C2D38BF0C25002D06463FDB8D4252
:102E80003DD3214B1C6818462146A1B10B685B1B42
:102E90000ED40B2B03D90B60CC18CD501FE08C4205
:102EA00002D1626802601AE04B6863600C4616E06B
:102EB0000C464968E9E7154C23681BB9304600F019
:102EC00039F820602946304600F034F8431C0146AA
:102ED00015D0C41C24F0030484420AD1256004F1F7
:102EE0000B00231D20F00700C31A0BD05A42E250FA
:102EF00070BD3046611A00F01DF80130EED10C2390
:102F00003360002070BD00BF68040020640400200E
:102F100038B5074C054600202060084611461A4681
:102F2000FDF78AFA431C02D1236803B12B6038BD38
:102F30003805002038B5064C0023054608462360B6
:102F4000FDF7B4FB431C02D1236803B12B6038BDED
:102F50003805002000290CBF022200224FF48063B4
:102F600000F000B82DE9F0411E463D4B1D680446B7
:102F70000F46904625B1AB6913B92846FFF716FDF9
:102F8000384B9C4201D16C6808E0374B9C4201D120
:102F9000AC6803E0354B9C4208BFEC68B8F1020F07
:102FA00059D8002E57DB28462146FFF76FFC002337
:102FB0006360A361A3891B0603D528462169FFF737
:102FC0000FFFA389B8F1020F23F08303A38112D06E
:102FD00037BB002E08BF4FF480663046FFF7D0FEA7
:102FE0000746C8B94FF48060FFF7CAFE074688B9A4
:102FF0004FF0FF3000E00020A38943F00203A381DB
:103000000023A36004F1470323602361012363616C
:10301000BDE8F0814FF48066A38943F08003A3816B
:10302000B8F1010F05D1A38943F00103A3817342D5
:10303000A3610F4BAB62A389276003F0080080B245
:103040002761666148B113F0030F18BF0026A66020
:103050000020BDE8F0814FF0FF30BDE8F08100BFF7
:103060000002002000860008208600084086000834
:10307000052900080EB400B59CB04FF40271ADF8FC
:1030800014106FF00041049107914FF6FF711DABD2
:10309000ADF81610084953F8042B02900690086802
:1030A000019302A900F0FEF8029B00221A701CB0E6
:1030B0005DF804EB03B07047000200200EB430B599
:1030C0009CB01FAC4FF4017254F8045BADF81420AF
:1030D0000290069000F06BF80B4B0B9300230F93BC
:1030E00014934FF6FF73ADF81630084B039007901A
:1030F00002A9186801942A46234600F01BFA1CB066
:10310000BDE8304003B070473331000800020020B2
:1031100010B50C46B1F90E1003F022F8002803DBBD
:10312000636D0344636510BDA38923F48053A381B9
:1031300010BD002070472DE9F0411D468B89DB054D
:1031400007460C46164605D5B1F90E10002202239B
:1031500002F0A8FBA389B4F90E1023F48053A381D5
:10316000384632462B46BDE8F04101F065BC10B54B
:103170000C46B1F90E1002F095FB431CA38903D154
:1031800023F48053A38110BD43F48053A381606571
:1031900010BDB1F90E1001F0CFBC10F8012B11F8E1
:1031A000013B012A28BF9A42F7D0D01A7047034644
:1031B00013F8012B002AFBD1181A0138704770B59B
:1031C00092B10B4605461C7810F8016BB44201F130
:1031D000010101D1012A03D128781B78C01A70BDE2
:1031E000013A002CEDD1F7E7104670BD2DE9F0470C
:1031F0008D68AB4281460C4692461F4643D38B896D
:1032000013F4906F3DD026680969C1EB0608666922
:10321000022206EB460696FBF2F608F101023A445A
:10322000964238BF16465B050FD53146FFF71CFEA8
:10323000054698B121694246FFF7C1FDA38923F4F1
:10324000906343F08003A38113E0324602F061FFF4
:10325000054670B948462169FFF7C2FD0C23C9F83D
:103260000030A38943F04003A3814FF0FF30BDE855
:10327000F087256166614544C8EB06062560A660B7
:103280003D46AF4200D23D462A462068514602F0F4
:103290001BFBA3685B1BA36023681D442560002003
:1032A000BDE8F0872DE9F0439DB0074603938B8975
:1032B0001C060D4616460CD50B6953B94021FFF785
:1032C000D3FD2860286110B90C233B60C8E040237F
:1032D0006B610023099320238DF8293030238DF86A
:1032E0002A3033461C4613F8012B1AB9B4EB0609F1
:1032F0000FD002E0252AF5D1F8E7384629463246B4
:103300004B46FFF773FF013000F0A580099B4B444B
:1033100009932378002B00F09E8000234FF0FF32AA
:1033200004930793059206938DF853301A9304F192
:1033300001094C464D4E217830460522FFF730FDFD
:1033400009F10109049B28B1861B0120B040034309
:103350000493EEE7D90644BF20228DF853201A07C4
:1033600044BF2B228DF8532022782A2A02D0079BB3
:1033700021460EE0039A111D12680391002A01DB19
:10338000079204E0524243F002030792049301348F
:103390000AE00C4601312278303A092A03D80A2083
:1033A00000FB0323F5E7079323782E2B1AD16378CC
:1033B0002A2B0AD1039B1A1D1B680392002B04F1D0
:1033C0000204B8BF4FF0FF330BE0611C00230C4632
:1033D00001312278303A092A03D80A2000FB03235E
:1033E000F5E70593224E217830460322FFF7D8FCFB
:1033F00030B1861B049B4020B0400343049301344A
:1034000021781C488DF828100622661CFFF7C8FC9E
:1034100088B1194B33B9039B073323F007030833F3
:10342000039314E003AB0093384604A92A46134BD8
:1034300000F0D8FB07E003AB0093384604A92A4606
:103440000E4B00F04FFEB0F1FF3F804603D0099BCA
:103450004344099345E7AB895B0601D4099801E031
:103460004FF0FF301DB0BDE8F08300BF6886000854
:103470006E86000872860008E53B0008ED31000802
:1034800038B54B1C144602D14FF0FF3038BD93893C
:1034900023F020039381536B5268CDB283B1A36BA9
:1034A0009A4207DA23685A1E226003F8015C6368B7
:1034B00001331FE0214600F08BF90028F2D0E3E74A
:1034C0002169236851B18B4208D913F8010CA84235
:1034D00004D1013B01322360626038BDE36304F133
:1034E000440363630323A3632346226403F8465F14
:1034F000236001236360284638BD10B50C46496B34
:1035000069B104F14403994201D0FFF769FC236CCF
:1035100063600020606313B1E36B236010BD236917
:10352000236000236360A38943F02003A3814FF04D
:10353000FF3010BD2DE9F047ADF5247D0DF10C09EC
:1035400001930023469347939C4BA2939C4BCDF849
:10355000209107460C469046A39398F80050002D02
:1035600000F0248197490B682B448A465A7802F070
:10357000080202F0FF03EAB16368002B10DD236844
:10358000DAF8002019780A44527815070ED5479AC0
:103590000132479262680133013A62602360EBE7CF
:1035A000A39B3846214698470028E8D008F1010639
:1035B000B046D2E7252D08F101064FD1459343933C
:1035C00098F801302A2B03D11023439308F1020607
:1035D0003178A1F13003092B354606F1010606D8F2
:1035E000459B0A2202FB0313303B4593F0E7DFF8CB
:1035F000DC8103224046FFF7D3FB40B1C8EB000853
:10360000439B012000FA08F00343439335466E1CA8
:103610002D78672D0FD8652D78D25B2D54D005D825
:10362000002D00F0C580252D18D071E0632D57D0F6
:10363000642D3FD06CE0702D32D007D86E2D55D060
:103640003AD8692D64D10023449339E0752D31D0E7
:10365000782D29D0732D5BD102233FE06368002BC6
:103660000DDD23681A78AA4240F0A0800133626819
:103670002360479B013A01336260479398E7A39B1D
:103680003846214698470028EBD04698002800F09D
:103690008F80A38913F0400F18BF4FF0FF3089E0EF
:1036A000439B43F020034393439B43F400734393B2
:1036B000102302E00A2300E008236E2D449301DC6E
:1036C00003230BE0042309E03146484602F07CFD69
:1036D000439B43F0400343930646012349931BE079
:1036E000439B43F0400343930023F7E7439AD006FC
:1036F0003FF55EAF12F0010F019A479B02F1040102
:103700000191126814BF1380136051E70523E5E7A8
:10371000032349930A2344936368002B03DD439BEF
:10372000590611D518E0A39B384621469847002832
:10373000F5D0AAE7479A013247926268013A002A17
:10374000626013DD013323602368DAF80020197802
:103750000A4452781207EDD4499B022B0DDC3846FF
:1037600043A9224601AB00F0BDFF19E0A39B3846F8
:10377000214698470028E7D087E7042B06DC384627
:1037800043A9224601AB01F00DF809E00E4B002BD6
:103790003FF40EAF384643A9224601AB00F0B6FD18
:1037A000012803D002287FF403AF6EE7469801E0BA
:1037B0004FF0FF300DF5247DBDE8F087813400081F
:1037C000FB340008040200200D4300086E86000848
:1037D0002DE9F0410C46496B04F1440399421CD198
:1037E0004FF48061FFF740FB18B94FF0FF30BDE8A0
:1037F000F0814FF48063A36394F84630606380F8EF
:10380000FF3394F8453080F8FE3394F8443080F864
:10381000FD3300F2FD30206012E0A66B77003A46DF
:1038200002F077FC05460028DFD000EB0608404692
:1038300029463246FFF7C3FAC4F800806563A763E0
:103840000020BDE8F0819368013B002B10B5936028
:1038500005DA9469A34208DBCBB20A2B05D01368C2
:10386000581C10601970C8B210BDBDE8104001F0BE
:103870008FB8F8B505460E461446D718BC4208D096
:10388000284614F8011B3246FFF7DDFF431CF5D133
:1038900000E00020F8BD00002DE9F0439DB00D468A
:1038A00017460393064618B183690BB9FFF77EF8F4
:1038B000734B9D4201D1756808E0724B9D4201D166
:1038C000B56803E0704B9D4208BFF568AB891807E7
:1038D0000AD52B6943B10023099320238DF82930A1
:1038E00030238DF82A3038E03046294601F0B6F80A
:1038F0000028F0D04FF0FF30BFE0039A111D12688E
:103900000391002A70DB0792013423782E2B7DD09F
:103910005E4F217838460322FFF742FA30B1C71BC9
:10392000049B4020B8400343049301342178584855
:103930008DF828100622671CFFF732FA002800F0E5
:103940008A80544B002B7DD1039B073323F0070360
:1039500008330393099B434409933B461C4613F8E1
:10396000012B1AB9B4EB07090ED002E0252AF5D1D4
:10397000F8E7304629463A464B46FFF77AFF0130D2
:1039800076D0099B4B4409932378002B70D00023F9
:103990004FF0FF3204930793059206938DF853304E
:1039A0001A9304F101094C463B4F21783846052211
:1039B000FFF7F6F909F10109049B28B1C71B0120A3
:1039C000B84003430493EEE7D90644BF20228DF8A4
:1039D00053201A0744BF2B228DF8532022782A2A1D
:1039E0008BD0079B214605E0524243F00203079229
:1039F000049389E70C4601312278303A092A03D82A
:103A00000A2000FB0323F5E707937EE763782A2B60
:103A10000AD1039B1A1D1B680392002B04F10204B8
:103A2000B8BF4FF0FF330BE0611C00230C4601319F
:103A30002278303A092A03D80A2000FB0323F5E74D
:103A4000059365E703AB0093304604A92A46134B60
:103A500000F0C8F807E003AB0093304604A92A46FB
:103A60000E4B00F03FFBB0F1FF3F80467FF472AF9A
:103A7000AB895B063FF53EAF09981DB0BDE8F0830A
:103A80000086000820860008408600086E86000830
:103A900072860008E53B0008688600087338000855
:103AA00030B51346044A05460C461068294622469E
:103AB000BDE83040FFF7F0BE000200202DE9F047DE
:103AC00088B0002B14461D46109E1299139F05DAEC
:103AD00005F100431D4614462D2300E000230B7022
:103AE000149B23F0200ABAF1460F04D0BAF1450F17
:103AF00003D1013601E0032300E002238DE8C80072
:103B000006AB039307AB049322462B4601F0B4F8AF
:103B1000BAF1470F804602D1119BDB0725D5BAF1D8
:103B2000460F08EB06090FD198F80030302B09D169
:103B3000204629460022002304F00EFA10B9C6F1EF
:103B400001063E603B689944204629460022002336
:103B500004F002FA08B1CDF81C90079B4B4504D243
:103B60005A1C079230221A70F7E7079BC8EB030232
:103B7000159B40461A6008B0BDE8F087034673B550
:103B8000002903F8022B03DA49421A462D2401E0EA
:103B90001A462B24092944701ADD0DF106040A2661
:103BA00091FBF6F506FB15113031092D234604F87B
:103BB00001192946F3DC05F1300103F8011D0DF16F
:103BC00007018B420AD213F8011B02F8011BF6E72A
:103BD00030241A46214402F8024B5970101A02B0E0
:103BE00070BD00002DE9F04F8FB00C4616461F4601
:103BF000DDF86090054601F051FED0F800A0504677
:103C0000FFF7D5FA00230C93D9F800300990073359
:103C100023F00703D3E9000103F1080294F81880A8
:103C2000C9F80020C4E9120102F0ACFA0128D4E975
:103C3000120117D10022002304F098F910B12D23AE
:103C400084F84330904B914AB8F1470F8CBF9146AE
:103C5000994603232361236823F0040323604FF074
:103C6000000B86E002F08EFA236848B9884A894939
:103C7000B8F1470F8CBF8946914603222261EBE7DA
:103C80006268511C28F0200B01D1062204E0BBF130
:103C9000470F02D10AB9012262606068CDF8108036
:103CA00043F480618DE803000DF12B0002900BA816
:103CB00003900CA80590002021600690D4E91223FF
:103CC0002846FFF7FBFEBBF1470F81460B9909D150
:103CD000C81C02DB6368994230DDA8F102085FFA74
:103CE00088F802E0B8F1650F12D80139424604F1B4
:103CF00050000B91FFF742FF0C9A8318012A83466C
:103D0000236102DC2268D2072DD5013323612AE02A
:103D1000B8F1660F14D10029636807DD216113B97A
:103D20002268D0071CD501330B4418E013B9226870
:103D3000D20701D5023312E0012310E04FF06708EB
:103D40000C9A914205DB23682161D80708D54B1CEA
:103D500005E00029D4BFC1F102030123134423610C
:103D6000A1654FF0000B9DF82B3013B12D2384F883
:103D700043300097284621460DAA334600F040F90B
:103D8000013002D14FF0FF3036E123685A0504D4E8
:103D9000284631464A46236908E1B8F1650F40F2EA
:103DA000CB80D4E912010022002304F0D5F80028CA
:103DB0002AD028463146384A0123B8470130E1D09D
:103DC0000C9B0B9A9A4207DB2368D80704D423681C
:103DD0009B0700F1F880FDE0284631465246099BDA
:103DE000B8470130CED04FF000080C9B013B9845FE
:103DF000EDDA2846314604F11A020123B8470130B2
:103E0000C0D008F10108F0E70B9B002B28DC284606
:103E10003146214A0123B8470130B3D00B9B23B967
:103E20000C9B13B92368D907D1D528463146524691
:103E3000099BB8470130A5D04FF000080B9B5B42AF
:103E400098452846314608DA04F11A020123B8479A
:103E5000013097D008F10108F0E74A460C9BA5E035
:103E6000A36D0C9A9A42B4BF93469B46BBF1000FD8
:103E700002DC4FF000081CE0284631464A465B460B
:103E8000B8470130F5D17DE7798600087D860008C6
:103E90008186000885860008D286000828463146BB
:103EA00004F11A020123B84701303FF46BAF08F167
:103EB0000108A36D2BEAEB729A1A9045EEDB09EB31
:103EC00003080B9A0C9B9A420FDB2368DA070CD489
:103ED0000C9B0B9A9944C8EB09099B1A9945A8BFFA
:103EE0009946B9F1000F08DC0FE0284631465246EA
:103EF000099BB8470130EBD144E72846314642469A
:103F00004B46B84701303FF43DAF4FF000080AE0A0
:103F10002846314604F11A020123B84701303FF424
:103F200031AF08F101080B9B0C9A29EAE971D31A09
:103F30005B1A9845ECDB4AE70C9A012A01DCDB07A7
:103F400039D5284631464A460123B84701303FF467
:103F500019AF284631465246099BB84701303FF415
:103F600011AFD4E912010022002303F0F5FF10B1D4
:103F70004FF0000811E00C9B2846314609F1010280
:103F8000013B1CE02846314604F11A020123B847E0
:103F900001303FF4F7AE08F101080C9B013B984556
:103FA000F0DB2846314604F150025B46B847013049
:103FB0007FF40DAFE6E6284631464A460123B8476E
:103FC0000130EED1DEE64FF00008E2680D9BD31A17
:103FD000984505DBE0680D9B9842B8BF18460BE09A
:103FE0002846314604F119020123B84701303FF455
:103FF000C9AE08F10108E8E70FB0BDE8F08F00BFD7
:104000002DE9F84315461F468A680B69DDF82080C4
:104010009A42A8BF13462B6091F8432006460C46EF
:104020000AB101332B602368990602D52B6802334D
:104030002B60236813F006091DD094F843302268E2
:10404000003318BF012392061FD5E1185A1C3020F7
:1040500081F84300224494F8451082F8431002335B
:1040600013E03046394604F119020123C0470130FC
:1040700007D009F10109E2682B68D31A9945F0DBF2
:10408000DBE74FF0FF30BDE8F8833046394604F1F6
:104090004302C0470130F4D023682A68E16803F086
:1040A0000603042B08BFC2EB01052369A2680CBFFD
:1040B00025EAE57500259A42C4BFC3EB0203ED185B
:1040C0004FF00009A9450ADA3046394604F11A02D0
:1040D0000123C0470130D4D009F10109F2E70020E3
:1040E000BDE8F8832DE9FF470E7E0C9D6E2E8046BD
:1040F0000C4691469A4601F1430000F0A58011D884
:10410000632E22D009D8002E00F0AF80582E40F048
:10411000BF8081F845607B4A4FE0642E1ED0692E37
:104120001CD0B5E0732E00F0A48009D86F2E2BD0E0
:10413000702E40F0AD800B6843F020030B6038E038
:10414000752E21D0782E34D0A2E02B681A1D1B6862
:104150002A6001F1420781F842309DE022682B6815
:1041600012F0800F03D01A1D2A601D6805E0510669
:10417000F9D51A1D2A60B3F90050002D39DA2D2324
:104180006D4284F8433034E022682B6812F0800FCF
:1041900003D01A1D2A601D6804E05206F9D51A1DC5
:1041A0002A601D88237E574A6F2B14BF0A230823D9
:1041B0001BE07823544A84F845302368296813F0BB
:1041C000800F01F104062E6001D00D6802E05F0649
:1041D000FBD50D88DE0744BF43F0200323601DB9E3
:1041E000236823F0200323601023002184F8431068
:1041F00001E0444A0A236668A660002E03DB2168BA
:1042000021F00401216005B96EB104F14201B5FB52
:10421000F3F603FB16550F46555D01F80159354677
:10422000002EF4D100E00746082B0AD12368DD07F1
:1042300007D5626823699A4203DC302307F8013C02
:10424000013FC01B20612CE009682B68626911F0F6
:10425000800F04D0191D29601B681A6005E049060B
:10426000F8D5191D29601B681A80002323610746B1
:1042700017E02B681A1D2A601F683846FEF797FF63
:1042800063682061984288BF23612369636005E009
:1042900004F1420784F8426001232361002384F87B
:1042A0004330CDF800A04046214603AA4B46FFF715
:1042B000A7FE013002D14FF0FF301FE040464946D3
:1042C0003A462369D0470130F5D023689B0705D4CF
:1042D000E068039B9842B8BF18460FE00025E268EB
:1042E000039BD31A9D42F3DA4046494604F1190272
:1042F0000123D0470130DED00135F0E704B0BDE83E
:10430000F08700BF898600089A8600082DE9F04FE3
:10431000164687B08A680293531EB3F5AE7F0746F0
:104320000C4606D96FF4AE731A4440F25D138B60ED
:1043300000E000222368A04643F4F06348F81C3BE9
:104340004FF0000B4546DA46CDF814B0CDF810B06A
:10435000D946CDF80CB0A168002900F0E980336897
:104360001B78492B75D016D8392B0DD8312B3ED25E
:104370002D2B45D002D82B2B42D0D9E02E2B00F08C
:104380009780302B23D0D3E0452B00F09A80462B2A
:104390007CD0412B0CE0652B00F093800AD8542B85
:1043A0007AD002D84E2B33D0C2E0592B7AD0612B71
:1043B00049D0BDE06E2B2BD004D8662B66D0692B7C
:1043C00047D0B5E0742B67D0792B6BD0B0E0206874
:1043D00010F4807F0BD020F08000206009F10109EB
:1043E000002A00F08C800131013AA16087E00AEBDD
:1043F0000B01002940F09C80216821F4C07105E088
:104400002168080640F1948021F08001216074E069
:10441000BAF1000F0ED1B9F1000F0ED1216801F4ED
:10442000E060B0F5E06F08D121F4F06121604FF059
:10443000010A62E0BAF1020F5DD0BBF1010F20D09A
:10444000BBF1040F1CE0BAF1010F71D14FF0020A69
:1044500053E0BBF1000F0ED1B9F1000F6BD1216811
:1044600001F4E060B0F5E06F69D121F4F061216002
:104470004FF0010B41E0BBF1030F02D0BBF1050F80
:1044800056D10BF1010B5FFA8BFB36E0BBF1020F4B
:104490004ED14FF0030B30E0BBF1060F48D14FF087
:1044A000070B2AE0BBF1070F42D14FF0080B24E0C5
:1044B000216888053CD521F420712160CDF80C904D
:1044C0001BE0216801F4A060B0F5806F04D04805BE
:1044D0002ED5B9F1000F32D0880504D40398059584
:1044E000C0EB0900049021F4F06141F4C071216037
:1044F0004FF0000901E04FF0030A2B700135A3686B
:10450000013BA3602369013323617368013B002BE6
:10451000736003DD3368013333601CE70192D4F824
:104520008031384631469847019A00283FF413AF4E
:10453000B9F1000F03D0236823F4807323600AF1DC
:10454000FF3ABAF1010F10D845452A460BD9D4F8E5
:104550007C3112F8011C3846324698472369013BEA
:10456000013D2361F0E70126B5E00BF1FF33062B97
:104570002CD8BBF1020F1AD9ABF1030B5FFA8BFBFE
:10458000AA46CBEB050CE2450ED0D4F87C311AF8E4
:10459000011DCDF804C03846324698472369DDF83E
:1045A00004C0013B2361EEE7CBEB05050EE045457A
:1045B0002A46D8D9D4F87C3112F8011C3846324644
:1045C00098472369013B013D2361F0E72368DA0541
:1045D0002ED55B050ED545452A46C4D9D4F87C3185
:1045E00012F8011C3846324698472369013B013DC9
:1045F0002361F0E715F8011C2369652903F1FF33F6
:1046000005F1FF3A23610DD045290BD0D4F87C3158
:10461000384632469847236915F8021C013BA5F13C
:10462000020A2361D4F87C31384632469847554611
:10463000266816F010064DD12E70236803F4C0636F
:10464000B3F5806F05D10399C1EB09035A4263B9F1
:1046500015E0049D9DB1059D3246691C38460A232C
:1046600002F03AFC049D421B059D04F26F139D422B
:1046700028BF04F5B77528461949FEF7FBFC4146EB
:104680000022384601F00CFE2268029D12F0020F53
:10469000804689462B6802D01A1D2A6006E0029DDA
:1046A00012F0040F03F104022A6003D01B68C3E96F
:1046B00000890BE01D6801F065FD10B901F0B6FD41
:1046C00003E04046494603F0C1FC2860E36801333B
:1046D000E36000E00026304607B0BDE8F08F00BF81
:1046E000AB8600082DE9F04115468A6880460C46E5
:1046F00032B98A69002A14BF4FF0FF3201228A6062
:104700002268D10603D41A68111D196017680026A3
:10471000A069E0B92368DA0606F1010603D42B6824
:104720001B783B7001372A686B6801322A60A268E7
:10473000013B013A6B60A26012B3002BE8DCD4F8B5
:1047400080314046294698470028E1D018E00128EA
:1047500007D12A6811786269525C002ADAD1EEB179
:104760000EE0022801D04EB10AE02A680C49127806
:1047700009680A4452781307CCD5F4E701280DD014
:10478000236813F0100305D1E2680132E260A269E8
:1047900002B13B7023691E4426610020BDE8F08110
:1047A000040200202DE9F04F984689B0744B0C4666
:1047B00005A902918146164693E80700029B83E80B
:1047C0000700A3696F4A7049032B08BF1146A3680D
:1047D00003915A1EB2F5AE7F07D96FF4AE7503EBA5
:1047E000050A40F25D13A36001E04FF0000A236860
:1047F00004F11C0743F450632360BB460023326876
:1048000005A951F82300117801930222FEF7C8FA96
:10481000019B002835D0012B0BD162682AB90822F0
:104820006260226842F400722260226822F4A06270
:104830000BE0022B0AD1226802F4C061B1F5007FBF
:104840001FD11021616042F480722260A268511E63
:10485000A160B2B13268511C316012788BF800202F
:104860007268013A002A0BF10105726008DC0193BD
:10487000D4F88021484631469047019B002840D11A
:10488000AB460133032BBAD163680BB90A236360CB
:1048900063683E496069C91A01F096FC5D464FF0B5
:1048A000000BA368002B2ED0326860691178405C41
:1048B00048B3302921680BD1080509D50BF1010B4C
:1048C000BAF1000F0AD001330AF1FF3AA36005E004
:1048D00021F41061216013782B7001357368013B5E
:1048E000002B736003DD33680133336005E0D4F8D7
:1048F000803148463146984728B9A368013BA360F8
:10490000CFE74FF0000B2368D9050DD5BD4209D97B
:1049100015F8011CD4F87C3148463246984705F119
:10492000FF3A5546BD4226D0226812F010021BD134
:104930002A706368039E48463946B0472268D8F813
:10494000003012F0200F07D1D20705D51A1DC8F884
:1049500000201B68188004E01A1DC8F800201B689E
:104960001860E3680133E3602369ED1BAB445B44EB
:104970002361002000E0012009B0BDE8F08F00BFF6
:10498000B0860008D96E0008DD6F0008CC860008EC
:1049900070B50E461446054618B183690BB9FEF78B
:1049A00005F8224B9C4201D16C6808E0204B9C42E8
:1049B00001D1AC6803E01F4B9C4208BFEC68A369BF
:1049C000A360A3891A0709D523693BB1236920682D
:1049D000C01A63699842F6B20FDB08E02846214608
:1049E00000F03CF80028F1D04FF0FF3070BD2846B1
:1049F0002146FDF74BFF0028F6D1A368013BA360D9
:104A000023685A1C22601E7063690130984204D0EA
:104A1000A389DB0707D50A2E05D128462146FDF7D5
:104A200035FF0028E0D1304670BD00BF0086000889
:104A3000208600084086000838B5074C054600204F
:104A40002060084611461A46FBF77CFD431C02D144
:104A5000236803B12B6038BD38050020324B70B598
:104A60001D6806460C4625B1AB6913B92846FDF70B
:104A70009DFF2E4B9C4201D16C6808E02C4B9C4260
:104A800001D1AC6803E02B4B9C4208BFEC68A289C3
:104A900093B2190720D4DD0605D4092342F0400261
:104AA0003360A2813BE0580712D5616B41B104F13C
:104AB0004403994202D03046FEF792F90023636323
:104AC000A38923F02403A381002363602369236067
:104AD000A38943F00803A38123694BB9A38903F495
:104AE0002073B3F5007F03D030462146FEF7FAF875
:104AF000A38913F0010205D00022A260626952422C
:104B0000A26103E0990758BF6269A26022694AB9AD
:104B100003F0800080B230B143F04003A3814FF036
:104B2000FF3070BD002070BD00020020008600082C
:104B3000208600084086000838B5064C002305464C
:104B400008462360FBF7E8FC431C02D1236803B14D
:104B50002B6038BD380500202DE9F74F03690C693B
:104B6000A3428046C0F28180013C01F11407A200FB
:104B700000F114059146009257F824602A440192EE
:104B800055F824200136B2FBF6F6B944002E3AD08F
:104B90004FF0000E3A462846F34652F804CB03681D
:104BA0001FFA8CFA4FEA1C4C0AFB06EA0CFB06FCC7
:104BB0000CEB1A4C1FFA8AFACAEB0B0A4FEA1C4E8E
:104BC0001FFA8CFC1AFA83FACCEB134C0CEB2A4C30
:104BD0001FFA8AFA4AEA0C4A4A454FEA2C4B40F837
:104BE00004ABDAD9009AAB586BB9019A131FAB42E8
:104BF0001A4602D8C8F8104005E01268043B002AA3
:104C0000F8D1013CF3E7404601F0D1F800282ADB57
:104C100001362B46002057F804CB1A681FFA8CF196
:104C2000411A4FEA1C4C11FA82F1CCEB124202EB12
:104C3000214289B210144F4541EA024243F8042B45
:104C4000E9D955F8242005EB840362B9043BAB4253
:104C50001A4602D8C8F8104005E01268043B002A42
:104C6000F8D1013CF3E7304600E0002003B0BDE896
:104C7000F08F0000000000002DE9F04F456A9BB066
:104C80008246279CCDE9042345B91020FEF778F829
:104C9000CAF82400456085600560C560DAF82430F4
:104CA000196861B15B684B60012202FA03F38B6003
:104CB000504600F059FEDAF8243000221A600599B7
:104CC000002905DA012321F000422360059201E06A
:104CD00000232360059F9C4A27F000431B0D1B0502
:104CE00093421DD12699049A42F20F730B6042B988
:104CF000964B974AC7F3130000280CBF104618467E
:104D000000E09248289F002F00F06885C37813B117
:104D100000F1080300E0C31C289F3B6000F05EBD6B
:104D2000DDE90445002220462946002303F014F95A
:104D3000804658B1269F01233B60289F002F00F03A
:104D40004A8584483860013800F048BD19AB0093AB
:104D500018AB0193504622462B4601F018F9C7F3D1
:104D60000A5683465EB1C5F3130343F07F512046D4
:104D700041F44011A6F2FF36CDF854801CE0199B97
:104D8000189E1E446FF482639E4209DB04991F3310
:104D900006F212409B1B21FA00F09F40384304E0CA
:104DA0006D48049A801B02FA00F002F0F7FD01271B
:104DB000A1F1F871013E15970022684B02F0B0FC9A
:104DC0005BA3D3E9002302F05FFE5BA3D3E90023DA
:104DD00002F0A8FC044630460D4602F0EFFD58A351
:104DE000D3E9002302F050FE02460B462046294636
:104DF00002F098FC04460D4603F0E0F8294681468F
:104E000000222046002303F0B1F858B1484602F0D2
:104E1000D5FD02460B462046294603F09DF808B909
:104E200009F1FF39B9F1160F0DD84D4B03EBC9034A
:104E3000D3E90001DDE9042303F0B6F830B109F14C
:104E4000FF39002700E00127149700E01490189B19
:104E50009E1B013E099604D57742089700270997C3
:104E600001E000270897B9F1000F07DB099FCDF893
:104E700044904F44099700270E9708E0089FC9EB1C
:104E800007070897C9F100070E9700271197249F7D
:104E9000092F28D8052FC4BF043F2497249FA7F1CA
:104EA0000203CCBF00250125032B21D8DFE803F046
:104EB000060F0204012702E0012709E000270F97EF
:104EC000259F002F1EDD0B9707973B461FE000270D
:104ED0000F97259F4F440B9701373B460797012BB0
:104EE000B8BF012313E00125002724970F9501E0A7
:104EF00001270F974FF0FF370B97079700271223D3
:104F0000259704E001270B9707973B462597DAF88A
:104F1000244000226260042101F114029A4221D847
:104F20006268013262604900F6E700BFAFF30080BB
:104F300061436F63A787D23FB3C8608B288AC63F9F
:104F4000FB799F501344D33F0000F07FE1870008B6
:104F5000D8870008D3860008EEFBFFFF0000F83F6B
:104F6000F08700085046616800F0C9FCDAF8243088
:104F7000079F20601B680A930E2F00F26981002DA5
:104F800000F066819DED047BB9F1000F8DED127B81
:104F900031DD804A09F00F0302EBC30393ED007B80
:104FA0004FEA2914E0068DED0C7B0CD57A4BDDE938
:104FB0001201D3E9082302F091FE04F00F04CDE9B9
:104FC0000401032700E00227734D6CB1E10708D507
:104FD000DDE90C01D5E9002302F056FDCDE90C0115
:104FE000013764100835F0E7DDE90401DDE90C2341
:104FF00002F074FE1BE0C9F10004DCB1654B664DA4
:1050000004F00F0203EBC203DDE91201D3E9002330
:1050100002F03AFD241102274CB1E20704D5D5E98C
:105020000023013702F030FD64100835F4E7CDE9C4
:10503000040100E002271499E1B1DDE904450022F2
:1050400020462946554B02F091FFC0B1079ADAB1CC
:105050000B9B002B40F3F88009F1FF3110910022E7
:10506000204629464E4B02F00FFD0137CDE90401E1
:105070000B9A0CE0079BCDF840900C9308E0079941
:10508000CDF840900C9103E0079ACDF840900C9237
:10509000384602F093FCDDE9042302F0F5FC00221F
:1050A000404B02F03FFB0C9F0446A1F15075CFB975
:1050B00000223D4BDDE9040102F032FB22462B4683
:1050C00006460F4602F070FF002840F04B82224651
:1050D00005F100433046394602F048FF002840F011
:1050E0003782B1E00C9F2B4B7A1E0F9F03EBC2035C
:1050F000002F5DD0D3E9002300202C4902F0EEFD03
:1051000022462B4602F00CFBDDE90467DDF828801F
:1051100004460D463946304602F050FF029002F038
:105120004DFC02460B463046394602F0F9FADDF8EE
:1051300008C00CF1300308F8013B22462B46064616
:105140000F4602F013FF002840F0338332463B46FF
:105150000020124902F0E4FA22462B4602F006FF34
:10516000002840F0D4800A990C9AC1EB08039342BE
:105170006ADA204629460022094B02F085FC00220B
:1051800004460D4630463946054B02F07DFC064686
:105190000F46BFE7F0870008B88800080000F03F1E
:1051A0000000244000001C40000014400000E03FCC
:1051B000D3E9000122462B4602F066FCDDF8288088
:1051C0000C9B0A9CCDE91601DDE904679844394639
:1051D000304602F0F3FE054602F0F0FB30350246A1
:1051E0000B463046394602F09BFA04F8015B444511
:1051F00006460F4621D10022874BDDE9160102F059
:1052000091FA02460B463046394602F0CDFE0028A0
:105210007DD1DDE9162300207F4902F081FA0246A4
:105220000B463046394602F0A1FE68B1A046013C6B
:1052300018F8013C302BF9D0BBE20022774B02F08A
:1052400023FC06460F46C2E79DED127B8DED047BE5
:10525000199B002B7CDBB9F10E0F79DC704B259F7D
:1052600003EBC903002FD3E9004514DA079F002F91
:1052700011DC40F06F81204629460022694B02F084
:1052800003FCDDE9042302F085FE079D2C4600287F
:1052900040F062816AE1DDE90467DDF8288022469A
:1052A0002B463046394602F019FD02F087FE049085
:1052B00002F084FB22462B4602F0E6FB02460B4638
:1052C0003046394602F02CFA049F07F1300608F800
:1052D000016B0A9FC7EB0806079FBE4202460B46BA
:1052E00029D102F01FFA22462B4606460F4602F04D
:1052F0005BFE70B93046394622462B4602F02CFE42
:10530000002800F05882049FFB0702D453E2DDF826
:10531000409043469846013B18F8012C392A06D1A3
:105320000A9F9F42F6D1302209F101093A701A789A
:1053300001321A703FE20022384B02F0A5FB002236
:10534000002306460F4602F007FE0028A7D032E2EF
:105350000F9F002F30D0249F012F0ADC159F17B11B
:1053600003F2334302E0189BC3F136030E9D089EFF
:1053700016E0079F7D1E0E9FAF4201DB7D1B06E0FE
:105380000E9F0E95EB1B119F1F4411970025079F41
:10539000002F03DA08990023CE1B01E0089E079B2B
:1053A000089F1F440897099F50461F4401210997F1
:1053B00000F0BAFB044602E00E9D089E0F9C6EB101
:1053C000099F002F0ADD3B46089FB342A8BF334622
:1053D000FF1A0897099FFF1AF61A09970E9F002FC8
:1053E00028DD0F9F07B3002D10DD21462A465046C9
:1053F00000F03CFC04465A462146504600F09DFB16
:1054000059460746504600F0AFFABB460E9F7A1B3E
:1054100010D0504659460AE00000E03F000024400A
:10542000F0870008000014400E9A5046594600F0DC
:105430001DFC83465046012100F076FB119F002F92
:10544000054605DD294650463A4600F00FFC054664
:10545000249F012F12DC049981B9059AC2F313032A
:1054600073B922F000473F0D3F0557B1089F013740
:105470000897099F01370997012702E0002700E0FC
:10548000049F119941B12B6905EB8303186900F062
:10549000FEFAC0F1200000E00120099B034413F054
:1054A0001F0308D0C3F12002042A02DDC3F11C034C
:1054B00002E008D013461C33089A09991A4419448B
:1054C00008921E440991089A002A04DD5946504664
:1054D00000F01AFC8346099B002B05DD2946504647
:1054E0001A4600F011FC05461499E1B158462946C8
:1054F00000F05DFC002816DA59460A2250460023C7
:1055000000F049FA0F9A09F1FF3983464AB1214662
:10551000002350460A2200F03EFA0B9B07930446F4
:1055200001E00B990791079A002A29DC249B022BA2
:1055300026DD8AB929460522079B504600F02BFA42
:1055400005462946584600F032FC00280EDC03E0F0
:105550000C9D00E000252C46259FDDF828806FEA91
:1055600007090AE00C9DDDF840902C460A9F312384
:1055700007F101083B7009F101092746002407E102
:105580000F99002900F0BB80002E05DD2146504612
:10559000324600F0B9FB04469FB16168504600F006
:1055A000AEF922690232064604F10C0192000C3079
:1055B000FDF705FC50463146012200F0A5FB0746E9
:1055C00000E027460A9E29465846FFF7C5FA2146BD
:1055D00000F1300C80465846CDF808C000F0E7FBDB
:1055E0003A4608902946504600F0FEFBC368DDF8B5
:1055F00008C002464BB911465846039200F0D7FB4B
:10560000039ADDF808C0034600E001235046114626
:105610000393CDF808C000F0A7F9039BDDF808C09C
:1056200063B9249A52B9049901F0010232B9BCF16C
:10563000390F35D0089B002B24DC25E00899002980
:1056400002DA002B08DC1FE023D1249A0ABB04995C
:1056500001F00102EAB9F4E7594601225046CDF8BB
:1056600008C000F051FB2946834600F0A0FB00284B
:10567000DDF808C003DC07D11CF0010F04D0BCF139
:10568000390F0DD008F1310C06F1010886F800C081
:105690007EE0002B06F1010809DDBCF1390F03D1D2
:1056A0003923337001365BE00CF1010368E00A9A9C
:1056B00007994646C2EB08038B4206F801CC3CD062
:1056C00059460A220023504600F065F9BC42834641
:1056D000214650464FF00A024FF0000304D100F07B
:1056E0005AF9044607466EE700F055F93946044674
:1056F0000A225046002300F04EF9074663E70F9E4A
:1057000058462946FFF728FA0A9F00F1300C07F89F
:1057100006C0079F0136BE4207DB0A9E012FACBFC1
:10572000F61901362746002407E0594650460A225A
:10573000002300F030F98346E2E759460122504643
:10574000CDF808C000F0E0FA2946834600F02FFBB0
:105750000028DDF808C003DC14D11CF0010F11D0C3
:1057600016F8013C392BB04606F1FF3607D10A99ED
:10577000B142F5D1312309F101090B7008E0013381
:10578000337005E0B046013E18F8013C302BF9D0EB
:105790005046294600F0E8F86FB12CB1BC4203D066
:1057A0005046214600F0E0F85046394600F0DCF85B
:1057B00001E0DDF840905046594600F0D5F800234E
:1057C000269F88F8003009F101033B60289F27B12C
:1057D000C7F8008001E0034800E00A981BB0BDE86C
:1057E000F08F00BFD28600080B78722B30B509D03D
:1057F000772B0BD0612B0ED14FF4027401234FF4A1
:1058000084701BE000242346042017E04FF4C0649A
:105810000123082012E016230360002030BD622D12
:1058200010D0782D11D02B2D07D120F01C0023F0A3
:10583000030340F0100043F0020301314D78002DC6
:10584000EDD105E043F48033F7E743F40063F4E778
:105850002343136030BD000038B5074C00230546D4
:10586000084611462360FAF701FF431C02D1236862
:1058700003B12B6038BD00BF3805002038B5064C99
:105880000023054608462360FAF7C8FE431C02D1F0
:10589000236803B12B6038BD3805002000487047ED
:1058A0000802002038B5074C054600202060084655
:1058B00011461A46FAF7C6FE431C02D1236803B10B
:1058C0002B6038BD38050020814270B501D300231C
:1058D0000EE08C18A042FAD28518134613F1FF335C
:1058E00005D3514266182944F65CCE54F6E770BDE4
:1058F000934203D0CC5CC4540133F9E770BD70B55A
:10590000456A04460E463DB91020FDF739FA60623B
:10591000456085600560C560656AEB6843B1636A90
:10592000DA6852F8260078B1016842F8261017E0CC
:1059300020460421212200F0DEFB636AE860DB6878
:10594000002BECD1002070BD012101FA06F56A1D83
:105950002046920000F0CFFB0028F3D0466085601F
:1059600000220261C26070BD70B5446A06460D46F1
:105970003CB91020FDF704FA706244608460046052
:10598000C4603DB1736A6A68DB6853F8221029600D
:1059900043F8225070BD2DE9F0410C461E460D69BA
:1059A00007461431002308681FFA80FC000C02FB34
:1059B0000C6C504300EB1C4001331FFA8CFC060CAE
:1059C000AB420CEB004041F8040BECDBD6B1A36812
:1059D0009D4212DB616838460131FFF790FF226972
:1059E000023204F10C01804692000C30FDF7E7F919
:1059F00021463846FFF7B8FF444604EB85030135DE
:105A00005E6125612046BDE8F0812DE9F84314462A
:105A1000984603F1080209230D4692FBF3F206466D
:105A2000012300219A4202DD5B000131FAE7304692
:105A3000FFF765FF089B4361092C4FF00103014606
:105A4000036111DD05F109094F46254417F8013BB3
:105A500030460A22303BFFF79EFFAF420146F5D1A8
:105A600009EB0407083F02E005F10A07092425466F
:105A7000454509DA3B1B30465B5D0A22303BFFF7A8
:105A80008AFF01350146F3E70846BDE8F883030CB9
:105A90001B0413B90004102300E0002310F07F4F13
:105AA00004BF0002083310F0704F04BF000104333C
:105AB00010F0404F04BF80000233002803DB420097
:105AC00003D5581C7047184670472020704703685C
:105AD00013F007020BD0D90722D49A0703D55B082D
